:020000040800F2
:10000000500A002081020008971400089314000889
:1000100095140008ED020008D91700080000000040
:10002000000000000000000000000000A101000826
:10003000EF02000800000000FD0100084116000862
:100040009B0200089B0200089B0200089B0200081C
:100050009B0200089B0200089B0200089B0200080C
:100060009B0200089B0200089B0200089B020008FC
:100070009B0200089B0200089B0200089B020008EC
:100080009B0200089B0200089B0200089B020008DC
:100090009B0200089B0200089B0200089B020008CC
:1000A0009B020008151700089B0200089B0200082D
:1000B0009B02000800000000000000009B020008F6
:1000C0009B02000800000000000000009B020008E6
:1000D00000000000C1170008CD1700080000000054
:1000E0009B0200089B0200080000000000000000C6
:1000F0000000000000000000000000000000000000
:100100000000000000000000000000009B0200084A
:1001100000000000000000009B0200089B02000895
:100120009B0200089B0200089B0200089B0200083B
:100130009B0200080000000000000000000000001A
:100140009B0200089B0200089B0200089B0200081B
:100150009B0200089B0200089B0200089B0200080B
:100160009B0200089B0200089B02000800000000A0
:100170009B0200089B020008000000000000000035
:100180009B0200089B0200089B020008DFF80CD0CD
:1001900000F09AF80048004719180008500A00209B
:1001A0002C4B1968086800F05AB880F30988BFF32F
:1001B0006F8F4FF0000080F311887047000000003F
:1001C00008480068006880F308884FF0000080F35A
:1001D000148862B661B6BFF34F8FBFF36F8F00DF35
:1001E00000BF00BF08ED00E0DFF80C00016841F43B
:1001F00070010160704700BF88ED00E0EFF30980F7
:10020000BFF36F8F134B1A681EF0100F08BF20ED5D
:10021000108A20E9F04F106009B44FF0500080F3CD
:100220001188BFF34F8FBFF36F8F01F05FFB4FF06B
:10023000000080F3118809BC1968086800F014B840
:100240001EF0100F08BF00F014B880F30988BFF348
:100250006F8F704710000020EFF30580704730C8A3
:10026000B0E8C04FFFF7A1BF30C8B0E8C04FFFF7FC
:10027000E7BFB0EC088AB0EC08CAFFF7E6BF0000A1
:100280000648804706480047FEE7FEE7FEE7FEE730
:10029000FEE7FEE7FEE7FEE7FEE7FEE7D116000811
:1002A0008D010008D2B201E000F8012B491EFBD2FB
:1002B00070470022F6E710B513460A460446194671
:1002C000FFF7F0FF204610BD064C074D06E0E06842
:1002D00040F0010394E8070098471034AC42F6D38D
:1002E000FFF758FF601A0008801A0008FEE7704701
:1002F00010B590F825100024022903D00421C16311
:1003000001241AE001680A6822F00E020A600168FE
:100310000A6822F001020A6090F84410036C01F0B0
:100320001C02012101FA02F25A6080F82510002116
:1003300080F82410816B01B18847204610BD000071
:1003400070B5044600F0ECF80546601C02D0044885
:100350004068044400F0E4F8401BA042FAD370BDAA
:10036000000000202DE9FC4FDFF880A100230125CB
:100370000AF1040B03244FF00F0C0BF1040EAEE056
:1003800005FA03F632406FD04F68012F05D0022FD7
:1003900003D0112F01D0122F17D1D0F808905F0091
:1003A00004FA07F829EA08090097D1F80C8008FA3E
:1003B00007F848EA0908C0F808804768B7430E798B
:1003C000C6F300169E403E434660C6684FEA4308A7
:1003D00004FA08F7BE4301978F6807FA08F7374316
:1003E000C7604E68022E01D0122E13D1DE0800EB3A
:1003F00086060096366A5F07FF0E0CFA07F926EAB2
:100400000906D1F8109009FA07F949EA0609009E91
:10041000C6F820900768019EB7430E7906F00306E0
:1004200006FA08F63E4306604E68F60056D5304E92
:10043000376E47F001073766366E23F0030706F084
:10044000010600962B4E3E44B146B6689F074FEA20
:1004500017780CFA08F7BE43B0F1904F05D0264F3D
:10046000B84204D1012708E038E0002705E0234F17
:10047000B84201D1022700E0072707FA08F73743FF
:10048000C9F80870DAF800605746D1F8048096433E
:100490005FEAC83800D516433E60DBF800605F466F
:1004A000D1F8048096435FEA883800D516433E6051
:1004B000DEF800607746D1F8048096435FEAC828EA
:1004C00000D516433E60094F0C373E68D1F80480D2
:1004D00096435FEA882800D516433E605B1C0A6895
:1004E00032FA03F67FF44CAF00F00AB80004014082
:1004F00000100240000001400004004800080048CD
:100500001CBCBDE8E08F42690A4201D0816270479D
:10051000816170470AB18161704781627047000054
:100520000148806870470000000000200248816890
:1005300042681144816070470000002010B500241B
:10054000032000F08DF8002000F008F808B1012425
:1005500001E000F03DF8204610BD000000B5014666
:1005600087B00022192000F05BF8192000F04AF84B
:100570001348016E41F400610166006E05A900F4A4
:1005800000600690684600F08FFA00F0ADFA0D4961
:100590000D4AB0FBF1F10D48491E0260416040F286
:1005A000E7320021C0E90321816000F0BAFD10B1FB
:1005B000012007B000BD054800F0D0FDF9E70000BC
:1005C0000010024040420F00002C01404C0100206E
:1005D0000B4882B0016E41F001010166016E01F02D
:1005E00001010091816D41F080518165806D002293
:1005F00000F0805000900F21901E02B000F010B863
:1006000000100240002809DB00F01F020121914088
:100610004009800000F1E020C0F8001170470000A0
:10062000F0B40E4B1B680C46C3F30223C3F107055D
:10063000042D00D90425191D072901D2002300E04B
:10064000DB1E012606FA05F1491E214099409E4015
:10065000761E16403143F0BC01F0BFB80CED00E04F
:10066000064900F0070208684FF6FF03184040EA09
:100670000220034A10430860704700000CED00E0C0
:100680000000FA051649B0F5007F0868C0F3412064
:1006900009D0022805D0086820F4C06040F48060CA
:1006A0000860002070470128FBD0086820F4C06073
:1006B00040F4007008600B483222006850430A4A38
:1006C000B0FBF2F0401C00E0401E4A69520501D523
:1006D0000028F9D148694005E3D5032070470000A0
:1006E000007000400C00002040420F0002480068EB
:1006F00000F4C06070470000007000402DE9F84F22
:100700000446002700889C4D3E46000515D5E06B49
:1007100060B1B0F5000F04D0B0F5400F2BD0012729
:100720000AE0E86840F48030E86024E00021201D01
:1007300000F0B2FE07001ED03E462068800338D588
:10074000A86D4FF00008C00009D4A86D40F080509B
:10075000A865A86D4FF0010800F080500090DFF808
:100760001CA2DAF8001041F48071CAF80010FFF7FB
:10077000D7FE814610E0D5F88800E16B20F44000F8
:100780000843C5F88800D8E7FFF7CAFEA0EB0900C8
:10079000022801D9032704E0DAF80000C005F3D5E8
:1007A000EFB33E46B8F1000F03D0A86D20F08050A3
:1007B000A8652078C00707D0D5F88800216A20F006
:1007C00003000843C5F888002078800707D5D5F8CE
:1007D0008800616A20F00C000843C5F88800207882
:1007E000800607D5D5F88800A16A20F44060084348
:1007F000C5F888002088800507D5D5F88800616B8A
:1008000020F440200843C5F888002088400509D519
:10081000D5F88800A16B20F44010084300E02EE0DA
:10082000C5F888002078400607D5D5F88800E16A29
:1008300020F440500843C5F888002088C00507D53B
:10084000D5F88800216B20F440300843C5F88800B3
:1008500020884FF0006780044FF080684ED5D5F8AF
:100860008800216C20F040600843C5F88800206CA7
:10087000B8423BD1E86840F48010E8603EE0D5F82B
:10088000900010F4407014D0216D814211D0D5F841
:100890009000D5F8901020F4407041F48031C5F8F4
:1008A0009010D5F8901021F48031C5F89010C5F85B
:1008B0009000C00711D0FFF733FE074641F2883998
:1008C00007E000BFFFF72CFEC11B494501D90326F5
:1008D00068E7D5F890008007F4D5D5F89000216D31
:1008E00020F440700843C5F890005BE7404505D10F
:1008F0000121201D00F0D0FD00B106462068400314
:1009000017D5D5F88800616C20F040600843C5F821
:100910008800606CB84204D1E86840F48010E86058
:1009200007E0404505D10121201D00F0B5FD00B1D3
:1009300006462088400411D5D5F88800A16C20F027
:1009400040500843C5F88800A06CB0F1805F05D125
:100950000221201D00F0A0FD00B106462088000401
:1009600006D555F8880FE16C20F0804008432860D8
:10097000304600F005B80000001002400070004052
:1009800018BCBDE8E08F00002DE9F0470F460500D8
:1009900058D0404E306800F00700B84209D23068A5
:1009A00020F0070038433060306800F00700B8429C
:1009B00048D12878384CC0072CD06868032811D05B
:1009C000022812D0216898B1490500293ADAA168B5
:1009D00021F003010143A160FFF7A2FD804641F22F
:1009E000883910E021688901EFE721688903ECE785
:1009F0008907EAE7FFF794FDA0EB0801494502D912
:100A00000320BDE8F087A068696800F00C00B0EB37
:100A1000810FEFD12878800705D5A068A96820F05C
:100A2000F0000843A060306800F00700B8420BD91E
:100A3000306820F0070038433060306800F007006D
:100A4000B84201D00120DCE72878400705D5A0682E
:100A5000E96820F4E0600843A0602878000706D524
:100A6000A068296920F4605040EAC100A06000F04D
:100A70004DF8A168094AC1F30311515C01F01F014F
:100A8000C8400749086007480068BDE8F047FFF71D
:100A900065BD00000020024000100240181A000846
:100AA0000C000020000000200F2202600C4A936816
:100AB00003F003034360936803F0F00383609368DB
:100AC00003F4E063C36092684FF4E06303EAD20288
:100AD00002610448006800F00700086070470000E9
:100AE000001002400020024005480649006889685D
:100AF000054AC1F3C221515C01F01F01C840704793
:100B00000C00002000100240581A000870B525495A
:100B1000002318468A68CC6812F00C0204F0030621
:100B2000214C4FEA640509D00C2A05D0042A32D0A2
:100B3000082A00D1284670BD012E10D10B681B0772
:100B400004D4D1F89430C3F3032302E00B68C3F359
:100B50000313164E56F82330DAB10C2AEBD1C868CD
:100B600000F00300022818D0032818D01846CA68DD
:100B7000CB68C2F30212C3F306234343521CB3FBF8
:100B8000F2F2C868C0F34160401C4000B2FBF0F0D4
:100B900070BD184670BD204670BD2046E7E7284668
:100BA000E5E70000001002400024F400281A0008C5
:100BB0002DE9F84304006FD0FE4DA86800F00C0644
:100BC000E86800F003072078C00664D576B10C2EE3
:100BD00001D1012F0AD0A069002828687AD040F0FE
:100BE00001002860FFF79CFC80465DE028688007D4
:100BF00002D5A0690028DED0216A2868000703D545
:100C0000286800F0F00004E0D5F89400F02202EA31
:100C10001010814216D9084600F0D4FC00283BD1C0
:100C2000286840F0080028602868216A20F0F00059
:100C3000084328606868E16920F47F4040EA0120A9
:100C4000686016E0286840F0080028602868216A7B
:100C500020F0F000084328606868E16920F47F40D4
:100C600040EA0120686026B9206A00F0ABFC002849
:100C7000D5D1FFF74BFFA968CF4AC1F30311515CEF
:100C800001F01F01C840CD490860CD480068FFF75A
:100C900065FC00287ED12EE0CAE000BFFFF740FCD3
:100CA000A0EB0800022876D828688007F6D52868C7
:100CB00040F0080028602868216A20F0F00008430E
:100CC00028606868E16920F47F4040EA012068609C
:100CD00011E0FFE720F001002860FFF721FC8046CB
:100CE00006E000BFFFF71CFCA0EB08000228DAD8E2
:100CF00028688007F6D42078C00740D0082E18D086
:100D00000C2E01D1032F14D06068B0F5803F17D0AE
:100D1000B0F5A02F286817D020F48030286028680C
:100D200020F4802028606068E0B1FFF7F9FB80467E
:100D300014E02868800322D56068002878D01EE07F
:100D4000286840F48030EDE740F480202860F7E721
:100D5000FFF7E6FBA0EB08006428A4D8286880030E
:100D6000F6D50CE0FFF7DCFB804605E0FFF7D8FB8B
:100D7000A0EB0800642896D828688003F6D4207871
:100D800080073BD5042E11D00C2E01D1022F0DD09F
:100D9000E06801E0B6E1FFE0002828681ED040F4DA
:100DA00080702860FFF7BCFB07460CE02868400510
:100DB0000CD5E0680028C1D008E000BFFFF7B0FB09
:100DC000C01B022893D828684005F7D56868217CA5
:100DD00020F0F85040EA016068600FE020F4807075
:100DE0002860FFF79DFB074605E000BFFFF798FB73
:100DF000C01B0228B1D828684005F7D42078000726
:100E000029D560690028D5F8940012D040F001007F
:100E1000C5F89400FFF784FB074604E0FFF780FB6A
:100E2000C01B022899D8D5F894008007F6D512E0A7
:100E30002BE120F00100C5F89400FFF771FB074695
:100E400005E000BFFFF76CFBC01B022885D8D5F872
:100E500094008007F6D42078400766D5A86D002757
:100E6000C00008D4A86D40F08050A865A86D012787
:100E700000F08050009053480168C90512D4016801
:100E8000814641F480710160FFF74AFB804605E02E
:100E9000FFF746FBA0EB080002287DD8D9F8000038
:100EA000C005F5D5A068012816D00528D5F8900012
:100EB00017D020F00100C5F89000D5F8900020F080
:100EC000040000BFC5F89000A06841F28839C0B1A5
:100ED000FFF726FB80460FE0D5F8900040F00100B8
:100EE000F0E740F00400C5F89000F5E7FFF718FBC5
:100EF000A0EB080149454FD8D5F890008007F5D5FB
:100F00000EE0FFF70DFB804606E000BFFFF708FB91
:100F1000A0EB080149453FD8D5F890008007F5D4EB
:100F20001FB1A86D20F08050A8652078800628D5D4
:100F3000606A0028D5F8980012D040F00100C5F88A
:100F40009800FFF7EDFA074605E000BFFFF7E8FA63
:100F5000C01B022820D8D5F898008007F6D510E0ED
:100F600020F00100C5F89800FFF7DAFA074604E020
:100F7000FFF7D6FAC01B02280ED8D5F898008007D4
:100F8000F6D4A06AA8B1022824D00C2E7DD02868FF
:100F900020F08070286000E0B3E02868000103D4EE
:100FA000E86820F00300E860E86807490840E86066
:100FB0000CE09FE000100240181A00080C0000200E
:100FC0000000002000700040FFFFEEFEFFF7A8FACF
:100FD000044699E0E868E26A00F00301914226D1F4
:100FE000216B00F070020901103991421FD1626B30
:100FF00000F4FE41B1EB022F19D194F8382000F033
:101000007841B1EBC26F12D1A18F00F4C002490840
:101010004905A1F50011914209D194F8401000F062
:10102000C06049084906A1F1007181424BD00C2EE5
:101030006FD0286840016CD4286820F08070286048
:10104000FFF76EFA064604E0FFF76AFA801B0228F3
:1010500057D828688001F7D4F4E90B016FF00F022C
:1010600002EB01110843218A5204490802EB415165
:10107000A26841EA02210843217D4FF07E424908DF
:1010800002EB41610843217B00E042E040EAC1609D
:10109000E968214A11400843E860286840F0807000
:1010A0002860E86840F08070E860FFF739FA04468D
:1010B00005E000BFFFF734FA001B022821D828689A
:1010C0008001F7D523E02868800120D4286840F00B
:1010D00080702860E86840F08070E860FFF720FAD0
:1010E000044604E0FFF71CFA001B022809D8286810
:1010F0008001F7D50BE000BFFFF712FA001B0228B2
:1011000002D90320BDE8F88328688001F4D40020C8
:10111000F8E70120F6E700008C809D0170477047DA
:10112000704710B5040003D094F83D0010B107E0FB
:10113000012010BD002084F83C00204600F00CF88F
:10114000022084F83D00211D206800F0E9FA01200A
:1011500084F83D00002010BD704700000168CA6897
:1011600042F00102CA6001688868064A10400628F9
:1011700006D0B0F5803F03D0086840F00100086059
:101180000020704707000100704770B504460068F2
:1011900001694FF00005C943890715D4C168C943E7
:1011A000890711D4E91E0161012020772068806938
:1011B0008007204602D0FFF7E7FF04E000F0A7F821
:1011C000204600F0A5F8257720680169C943490742
:1011D00017D4C168C943490713D46FF004010161F2
:1011E000022020772068806910F4407F204602D0DA
:1011F000FFF7CAFF04E000F08AF8204600F088F804
:10120000257720680169C943090716D4C168C94315
:10121000090712D46FF008010161042020772068CB
:10122000C0698007204602D0FFF7AEFF04E000F05F
:101230006EF8204600F06CF8257720680169C943F4
:10124000C90617D4C168C943C90613D46FF0100189
:101250000161082020772068C06910F4407F204693
:1012600002D0FFF791FF04E000F051F8204600F0B3
:101270004FF8257720680169C943C90708D1C168BB
:10128000C943C90704D1891E0161204600F042F814
:1012900020680169C943090609D4C168C943090620
:1012A00005D46FF0800101612046FFF738FF206808
:1012B0000169C943C90509D4C168C943090605D4F0
:1012C0006FF4807101612046FFF728FF20680169F3
:1012D000C943490609D4C168C943490605D46FF01A
:1012E00040010161204600F01FF820680169C943F0
:1012F00089060BD4C168C943890607D46FF0200161
:1013000001612046BDE87040FFF70ABF70BD70471D
:101310007047000000680349884201D1FFF706B911
:1013200070470000002C0140704770477047000074
:101330002DE9F04102680446D0691168936840F6CF
:101340000F0528424FF0000505D186067BD58E0695
:1013500079D5216E88E003F0010601F490773743D8
:1013600071D0C70707D0CF0505D501271762E26FF7
:1013700042F00102E267820708D5DA0706D0276843
:1013800002223A62E26F42F00402E267420708D5A5
:10139000DA0706D0236804221A62E26F42F00202E2
:1013A000E26702070AD501F02002324306D0236823
:1013B00008221A62E26F42F00802E267020509D5CC
:1013C0004A0107D523684FF400621A62E26F42F0C7
:1013D0002002E267E26F002A2ED0800605D588063B
:1013E00003D5216E09B120468847E06F21688968DE
:1013F000490602D410F0280F20D0204600F0D0F982
:1014000020688168490614D5816821F04001816017
:10141000E06E70B11D498163E06EFEF769FF002840
:101420000AD0E06E816B00E02046BDE8F04108473D
:1014300009E02046FFF77AFFBDE8F0812046FFF77C
:1014400075FFE567F8E7C60209D55B0207D54FF4DB
:10145000801010622046BDE8F041FFF766BF03062A
:1014600005D50B0603D5616E0029DDD1E4E7400602
:10147000E2D54806E0D51168204621F04001116010
:1014800020216167656600F003F8D5E78D17000835
:101490007047FEE7FEE770472DE9F041444C0546F2
:1014A0008846E0680026810728680DD0E16801F0D1
:1014B0000301814216D1A8B1E0686968C0F3021047
:1014C000401C88420ED120E0012804D0022805D01B
:1014D000032807D108E02168890701E02168490550
:1014E000002907DB01265FE02168890302D4216817
:1014F0004903F5E7E1686A686FF00F0321F07301B3
:1015000003EB021211430143E160206820F0806088
:101510002060FFF705F8074605E000BFFFF700F879
:10152000C01B022837D820680001F7D4B8F1000F9B
:1015300018D0B8F1010F1DD0287D4FF07E41400832
:1015400001EB4060A96840EA01202169194A114075
:1015500008432061206840F080602060FEF7E0FFD3
:1015600007461AE0A868297B000240EAC1602169A9
:10157000114AECE7288A1149400801EB4050A9685C
:1015800040EA012021690E4AE1E700BFFEF7C8FFEB
:10159000C01B022801D9032606E020680001F5D50A
:1015A0002069A969084320613046BDE8F081000048
:1015B00000100240FF80FFF9FF80FF070000E0FFFE
:1015C000FF809FFFF8B51C4D06460024A86DC000A3
:1015D00002D5FFF78BF80DE0A86D40F08050A865AC
:1015E000A86D00F080500090FFF780F8A96D21F001
:1015F0008051A965B0F5007F04D0802E07D94FF047
:1016000003040AE0802E08D9A02E01D804E001D1FD
:10161000022402E0702E00D101240848016821F064
:10162000070121430160006800F00700A04201D0DB
:101630000120F8BD0020F8BD00100240002002404B
:1016400010B5502080F31188BFF34F8FBFF36F8F19
:1016500000F07EF918B104494FF080500860002076
:1016600080F3118810BD000004ED00E010B5ACB0AF
:10167000442115A8FEF71DFE142126A8FEF719FE29
:1016800054216846FEF715FE102015900120002415
:10169000CDE91B0460201D901F9415A8FFF788FA60
:1016A0000F20CDE9260428942994002126A82A9405
:1016B000FFF76AF903200090089409946846FFF741
:1016C0001DF84FF40070FEF7DDFF2CB010BD0000D8
:1016D0000D48016841F4700101600C48016841F057
:1016E00001010160002181600268094B1A4002601B
:1016F0008214C260026822F4802202608161024981
:10170000C00380390860704788ED00E00010024097
:10171000FFFFF6EA0148FFF738BD00004C0100204A
:1017200070B50268164B4FF08046984201D0B04227
:1017300003D122F070044A682243124C124D9842A1
:1017400005D0B04203D0A04201D0A84203D122F478
:101750004076CA6832434E6922F08002324302600A
:101760008A68C2620A688262984203D0A04201D0AD
:10177000A84201D1096901630121416170BD0000E6
:10178000002C0140004001400044014010B5806A37
:101790000021A0F85A10A0F85210FFF7C7FD10BDA5
:1017A00001680A6822F490720A6001688A6822F06F
:1017B00001028A60202181670021016670470000D4
:1017C0000148FFF7B5BD00004C0000200148FFF7BD
:1017D000AFBD0000CC000020FEE70907090E00287D
:1017E00004DB00F1E02080F80014704700F00F00E7
:1017F00000F1E02080F8141D704702E008C8121FB5
:1018000008C1002AFAD170477047002001E001C1E9
:10181000121F002AFBD1704786B0FEF78FFEFFF73C
:1018200025FF14216846FEF744FD1648C16C41F0BF
:101830000101C164C16C01F001010591C16C41F06D
:101840000201C164C06C104C00F00200059000223F
:1018500008212046FEF75EFE08200090012001903E
:1018600000200290039069462046FEF77BFD40F27F
:10187000DC5508212046FEF746FE2846FEF760FDAF
:10188000F7E70000001002400004004806484168E5
:10189000096829B14168C968C96849680163704726
:1018A0004FF0FF31FAE7000010000020D0E90132CC
:1018B00001699A60D0E901235A604A68824201D1E5
:1018C00082684A60002202610868401E0860086859
:1018D000704742684A6093688B6093685960916072
:1018E00008610168491C016070470000164810B586
:1018F000816B11B10121416210BD002141628169FA
:10190000124A01E0B9B1491E01EB810352F82330BC
:10191000002BF7D001EB810302EB830202F10804F4
:1019200053685B685360A34201D15B685360DA6817
:101930000260816110BD502080F31188BFF34F8F8A
:10194000BFF36F8FFEE70000100000208C01002025
:101950002DE9F0412E4C0027A06B40B1206A401CBD
:101960002062606A00B101273846BDE8F0816669EF
:10197000761C666113D16068006838B1502080F32E
:101980001188BFF34F8FBFF36F8FFEE76068A168C8
:101990006160A060A06A401CA062FFF777FF206B27
:1019A000DFF87080864209D36068006880B16068A3
:1019B000C068C568686886420DD220632068C06A26
:1019C00000EB800158F821000128CAD90127C8E797
:1019D0004FF0FF30F1E7281DFFF768FFA86A18B144
:1019E00005F11800FFF762FFE86AA169884200D993
:1019F000A06100EB800108EB8100291DFFF769FF62
:101A0000E86A2168C96A8842CED30127CCE7000082
:101A1000100000208C0100200000000000000000E9
:101A20000102030406070809A0860100400D030017
:101A3000801A060000350C0040420F0080841E0012
:101A400000093D0000127A000024F40000366E0107
:101A50000048E801006CDC02000000000102030401
:101A6000801A0008000000204C000000FA1700084F
:101A7000CC1A00084C000020040A00000A180008D4
:101A800010000000010000000000000000093D00FF
:101A90000000000000000000000000000000000046
:101AA0000000000000000000000000000000000036
:101AB0000000000000000000000000000000000026
:0C1AC0000000000000000000000000001A
:040000050800018D61
:00000001FF
