:020000040800F2
:10000000B014002081020008CF1600087316000803
:10001000CD160008B9030008051E00080000000006
:10002000000000000000000000000000A101000826
:10003000BB03000800000000FD0100088118000853
:100040009B0200089B0200089B0200089B0200081C
:100050009B0200089B0200089B0200089B0200080C
:100060009B0200089B0200089B0200089B020008FC
:100070009B0200089B0200089B0200089B020008EC
:100080009B0200089B0200089B0200089B020008DC
:100090009B0200089B0200089B0200089B020008CC
:1000A0009B020008551900089B0200089B020008EB
:1000B0009B02000800000000000000009B020008F6
:1000C0009B02000800000000000000009B020008E6
:1000D00000000000ED1D0008F91D000800000000F0
:1000E0009B0200089B0200080000000000000000C6
:1000F0000000000000000000000000000000000000
:100100000000000000000000000000009B0200084A
:1001100000000000000000009B0200089B02000895
:100120009B0200089B0200089B0200089B0200083B
:100130009B0200080000000000000000000000001A
:100140009B0200089B0200089B0200089B0200081B
:100150009B0200089B0200089B0200089B0200080B
:100160009B0200089B0200089B02000800000000A0
:100170009B0200089B020008000000000000000035
:100180009B0200089B0200089B020008DFF80CD0CD
:1001900000F000F900480047451E0008B014002098
:1001A0002C4B1968086800F05AB880F30988BFF32F
:1001B0006F8F4FF0000080F311887047000000003F
:1001C00008480068006880F308884FF0000080F35A
:1001D000148862B661B6BFF34F8FBFF36F8F00DF35
:1001E00000BF00BF08ED00E0DFF80C00016841F43B
:1001F00070010160704700BF88ED00E0EFF30980F7
:10020000BFF36F8F134B1A681EF0100F08BF20ED5D
:10021000108A20E9F04F106009B44FF0500080F3CD
:100220001188BFF34F8FBFF36F8F02F0DBF94FF0F0
:10023000000080F3118809BC1968086800F014B840
:100240001EF0100F08BF00F014B880F30988BFF348
:100250006F8F704714000020EFF30580704730C89F
:10026000B0E8C04FFFF7A1BF30C8B0E8C04FFFF7FC
:10027000E7BFB0EC088AB0EC08CAFFF7E6BF0000A1
:100280000648804706480047FEE7FEE7FEE7FEE730
:10029000FEE7FEE7FEE7FEE7FEE7FEE711190008CE
:1002A0008D0100082DE9F05F0546002092469B462F
:1002B00088460646814640241BE02846414647467C
:1002C000224600F056F853465A46C01A914110D3C0
:1002D00011461846224600F03DF82D1A67EB01083A
:1002E0004F4622460120002100F034F817EB0009A8
:1002F0004E41201EA4F10104DFDC484631462A4667
:10030000434600F000B830BCBDE8C09F40EA01039E
:100310009B0703D009E008C9121F08C0042AFAD2BB
:1003200003E011F8013B00F8013B521EF9D270477F
:10033000D2B201E000F8012B491EFBD27047002227
:10034000F6E710B513460A4604461946FFF7F0FFD4
:10035000204610BD202A04DB203A00FA02F10020DA
:1003600070479140C2F1200320FA03F319439040F3
:100370007047202A04DB203A21FA02F0002170475E
:1003800021FA02F3D040C2F12002914008431946FD
:1003900070470000064C074D06E0E06840F001039E
:1003A00094E8070098471034AC42F6D3FFF7F2FE0A
:1003B000E8290008082A0008FEE7704710B590F801
:1003C00025100024022903D00421C16301241AE06E
:1003D00001680A6822F00E020A6001680A6822F0C9
:1003E00001020A6090F84410036C01F01C02012124
:1003F00001FA02F25A6080F82510002180F82410DA
:10040000816B01B18847204610BD00002DE9FC4FEB
:10041000DFF880A1002301250AF1040B03244FF02B
:100420000F0C0BF1040EAEE005FA03F632406FD06C
:100430004F68012F05D0022F03D0112F01D0122FAA
:1004400017D1D0F808905F0004FA07F829EA0809E4
:100450000097D1F80C8008FA07F848EA0908C0F8B4
:1004600008804768B7430E79C6F300169E403E43A6
:100470004660C6684FEA430804FA08F7BE4301978E
:100480008F6807FA08F73743C7604E68022E01D01D
:10049000122E13D1DE0800EB86060096366A5F073F
:1004A000FF0E0CFA07F926EA0906D1F8109009FAAE
:1004B00007F949EA0609009EC6F820900768019EE0
:1004C000B7430E7906F0030606FA08F63E430660C7
:1004D0004E68F60056D5304E376E47F00107376646
:1004E000366E23F0030706F0010600962B4E3E44BD
:1004F000B146B6689F074FEA17780CFA08F7BE4373
:10050000B0F1904F05D0264FB84204D1012708E042
:1005100038E0002705E0234FB84201D1022700E070
:10052000072707FA08F73743C9F80870DAF80060B8
:100530005746D1F8048096435FEAC83800D5164381
:100540003E60DBF800605F46D1F8048096435FEAC6
:10055000883800D516433E60DEF800607746D1F853
:10056000048096435FEAC82800D516433E60094FD1
:100570000C373E68D1F8048096435FEA882800D59E
:1005800016433E605B1C0A6832FA03F67FF44CAFF8
:1005900000F00AB8000401400010024000000140D1
:1005A00000040048000800481CBCBDE8E08F0AB108
:1005B0008161704781627047014880687047000020
:1005C000040000200248816842681144816070473D
:1005D0000400002010B50024032000F08DF8002056
:1005E00000F008F808B1012401E000F03DF82046D1
:1005F00010BD000000B5014687B00022192000F0B0
:100600005BF8192000F04AF81348016E41F40061CC
:100610000166006E05A900F400600690684600F0CF
:100620008FFA00F0BFFA0D490D4AB0FBF1F10D4809
:10063000491E0260416040F2E7320021C0E9032117
:10064000816000F0CCFD10B1012007B000BD05486D
:1006500000F0E2FDF9E700000010024040420F0008
:10066000002C0140C80300200B4882B0016E41F00D
:1006700001010166016E01F001010091816D41F0FF
:1006800080518165806D002200F0805000900F2124
:10069000901E02B000F010B800100240002809DBE4
:1006A00000F01F02012191404009800000F1E0208C
:1006B000C0F8001170470000F0B40E4B1B680C46E8
:1006C000C3F30223C3F10705042D00D90425191D26
:1006D000072901D2002300E0DB1E012606FA05F1FE
:1006E000491E214099409E40761E16403143F0BC81
:1006F00001F089BB0CED00E0064900F00702086834
:100700004FF6FF03184040EA0220034A10430860F6
:10071000704700000CED00E00000FA051649B0F546
:10072000007F0868C0F3412009D0022805D008687E
:1007300020F4C06040F48060086000207047012809
:10074000FBD0086820F4C06040F4007008600B48DB
:100750003222006850430A4AB0FBF2F0401C00E02D
:10076000401E4A69520501D50028F9D14869400563
:10077000E3D5032070470000007000401000002007
:1007800040420F000248006800F4C060704700005B
:10079000007000402DE9F84F0446002700889C4D6A
:1007A0003E46000515D5E06B60B1B0F5000F04D0F2
:1007B000B0F5400F2BD001270AE0E86840F4803004
:1007C000E86024E00021201D00F082FF07001ED019
:1007D0003E462068800338D5A86D4FF00008C00061
:1007E00009D4A86D40F08050A865A86D4FF00108AD
:1007F00000F080500090DFF81CA2DAF8001041F4FD
:100800008071CAF80010FFF7D7FE814610E0D5F8D6
:100810008800E16B20F440000843C5F88800D8E761
:10082000FFF7CAFEA0EB0900022801D9032704E064
:10083000DAF80000C005F3D5EFB33E46B8F1000F7B
:1008400003D0A86D20F08050A8652078C00707D09D
:10085000D5F88800216A20F003000843C5F8880015
:100860002078800707D5D5F88800616A20F00C0051
:100870000843C5F888002078800607D5D5F8880099
:10088000A16A20F440600843C5F8880020888005EC
:1008900007D5D5F88800616B20F440200843C5F8DF
:1008A00088002088400509D5D5F88800A16B20F480
:1008B0004010084300E02EE0C5F88800207840068C
:1008C00007D5D5F88800E16A20F440500843C5F800
:1008D00088002088C00507D5D5F88800216B20F452
:1008E00040300843C5F8880020884FF00067800436
:1008F0004FF080684ED5D5F88800216C20F040601C
:100900000843C5F88800206CB8423BD1E86840F441
:100910008010E8603EE0D5F8900010F4407014D0EC
:10092000216D814211D0D5F89000D5F8901020F4B7
:10093000407041F48031C5F89010D5F8901021F442
:100940008031C5F89010C5F89000C00711D0FFF7AE
:1009500033FE074641F2883907E000BFFFF72CFE5F
:10096000C11B494501D9032668E7D5F890008007E7
:10097000F4D5D5F89000216D20F440700843C5F8F7
:1009800090005BE7404505D10121201D00F0A0FE4D
:1009900000B106462068400317D5D5F88800616C81
:1009A00020F040600843C5F88800606CB84204D16C
:1009B000E86840F48010E86007E0404505D1012177
:1009C000201D00F085FE00B106462088400411D5A8
:1009D000D5F88800A16C20F040500843C5F8880085
:1009E000A06CB0F1805F05D10221201D00F070FEE7
:1009F00000B106462088000406D555F8880FE16C42
:100A000020F0804008432860304600F005B8000020
:100A1000001002400070004018BCBDE8E08F0000EC
:100A20002DE9F0470F46050058D0404E306800F0E1
:100A30000700B84209D2306820F007003843306020
:100A4000306800F00700B84248D12878384CC00719
:100A50002CD06868032811D0022812D0216898B1E0
:100A6000490500293ADAA16821F003010143A16098
:100A7000FFF7A2FD804641F2883910E02168890124
:100A8000EFE721688903ECE78907EAE7FFF794FDC0
:100A9000A0EB0801494502D90320BDE8F087A06812
:100AA000696800F00C00B0EB810FEFD12878800767
:100AB00005D5A068A96820F0F0000843A060306860
:100AC00000F00700B8420BD9306820F00700384327
:100AD0003060306800F00700B84201D00120DCE748
:100AE0002878400705D5A068E96820F4E06008434D
:100AF000A0602878000706D5A068296920F4605016
:100B000040EAC100A06000F05FF8A168094AC1F3A3
:100B10000311515C01F01F01C840074908600748F4
:100B20000068BDE8F047FFF765BD00000020024007
:100B3000001002409429000810000020040000204A
:100B40000F2202600C4A936803F00303436093682A
:100B500003F0F0038360936803F4E063C36092687A
:100B60004FF4E06303EAD20202610448006800F037
:100B7000070008607047000000100240002002409B
:100B80000548064900688968054AC1F30221515C9D
:100B900001F01F01C8407047100000200010024003
:100BA000D42900080548064900688968054AC1F348
:100BB000C221515C01F01F01C840704710000020A5
:100BC00000100240D429000870B5254900231846BA
:100BD0008A68CC6812F00C0204F00306214C4FEA3C
:100BE000640509D00C2A05D0042A32D0082A00D185
:100BF000284670BD012E10D10B681B0704D4D1F814
:100C00009430C3F3032302E00B68C3F30313164EBF
:100C100056F82330DAB10C2AEBD1C86800F0030093
:100C2000022818D0032818D01846CA68CB68C2F327
:100C30000212C3F306234343521CB3FBF2F2C8680B
:100C4000C0F34160401C4000B2FBF0F070BD18469C
:100C500070BD204670BD2046E7E72846E5E7000066
:100C6000001002400024F400A42900082DE9F843F4
:100C700004006FD0FE4DA86800F00C06E86800F094
:100C800003072078C00664D576B10C2E01D1012F60
:100C90000AD0A069002828687AD040F001002860B6
:100CA000FFF78AFC80465DE02868800702D5A069CE
:100CB0000028DED0216A2868000703D5286800F0E4
:100CC000F00004E0D5F89400F02202EA101081420E
:100CD00016D9084600F092FD00283BD1286840F064
:100CE000080028602868216A20F0F0000843286086
:100CF0006868E16920F47F4040EA0120686016E0FE
:100D0000286840F0080028602868216A20F0F00078
:100D1000084328606868E16920F47F4040EA0120C8
:100D2000686026B9206A00F069FD0028D5D1FFF778
:100D30004BFFA968CF4AC1F30311515C01F01F01B9
:100D4000C840CD490860CD480068FFF753FC002833
:100D50007ED12EE0CAE000BFFFF72EFCA0EB08001A
:100D6000022876D828688007F6D5286840F0080061
:100D700028602868216A20F0F0000843286068682D
:100D8000E16920F47F4040EA0120686011E0FFE75C
:100D900020F001002860FFF70FFC804606E000BF4E
:100DA000FFF70AFCA0EB08000228DAD828688007C1
:100DB000F6D42078C00740D0082E18D00C2E01D1D0
:100DC000032F14D06068B0F5803F17D0B0F5A02F86
:100DD000286817D020F480302860286820F480200C
:100DE00028606068E0B1FFF7E7FB804614E0286800
:100DF000800322D56068002878D01EE0286840F47F
:100E00008030EDE740F480202860F7E7FFF7D4FB5F
:100E1000A0EB08006428A4D828688003F6D50CE06D
:100E2000FFF7CAFB804605E0FFF7C6FBA0EB080012
:100E3000642896D828688003F6D4207880073BD5AC
:100E4000042E11D00C2E01D1022F0DD0E06801E04C
:100E5000B6E1FFE0002828681ED040F480702860CA
:100E6000FFF7AAFB07460CE0286840050CD5E068B0
:100E70000028C1D008E000BFFFF79EFBC01B02287E
:100E800093D828684005F7D56868217C20F0F85091
:100E900040EA016068600FE020F480702860FFF78E
:100EA0008BFB074605E000BFFFF786FBC01B02284F
:100EB000B1D828684005F7D42078000729D56069A3
:100EC0000028D5F8940012D040F00100C5F8940035
:100ED000FFF772FB074604E0FFF76EFBC01B02281A
:100EE00099D8D5F894008007F6D512E02BE120F0D0
:100EF0000100C5F89400FFF75FFB074605E000BF5F
:100F0000FFF75AFBC01B022885D8D5F8940080074C
:100F1000F6D42078400766D5A86D0027C00008D415
:100F2000A86D40F08050A865A86D012700F08050A2
:100F3000009053480168C90512D40168814641F404
:100F400080710160FFF738FB804605E0FFF734FB56
:100F5000A0EB080002287DD8D9F80000C005F5D51F
:100F6000A068012816D00528D5F8900017D020F0E9
:100F70000100C5F89000D5F8900020F0040000BFF3
:100F8000C5F89000A06841F28839C0B1FFF714FBA2
:100F900080460FE0D5F8900040F00100F0E740F007
:100FA0000400C5F89000F5E7FFF706FBA0EB080189
:100FB00049454FD8D5F890008007F5D50EE0FFF7EA
:100FC000FBFA804606E000BFFFF7F6FAA0EB080147
:100FD00049453FD8D5F890008007F5D41FB1A86DDA
:100FE00020F08050A8652078800628D5606A002807
:100FF000D5F8980012D040F00100C5F89800FFF72E
:10100000DBFA074605E000BFFFF7D6FAC01B02284F
:1010100020D8D5F898008007F6D510E020F0010020
:10102000C5F89800FFF7C8FA074604E0FFF7C4FACE
:10103000C01B02280ED8D5F898008007F6D4A06A05
:10104000A8B1022824D00C2E7DD0286820F0807012
:10105000286000E0B3E02868000103D4E86820F0CD
:101060000300E860E86807490840E8600CE09FE09A
:101070000010024094290008100000200400002005
:1010800000700040FFFFEEFEFFF796FA044699E07D
:10109000E868E26A00F00301914226D1216B00F07A
:1010A00070020901103991421FD1626B00F4FE41B8
:1010B000B1EB022F19D194F8382000F07841B1EB50
:1010C000C26F12D1A18F00F4C00249084905A1F5F1
:1010D0000011914209D194F8401000F0C060490815
:1010E0004906A1F1007181424BD00C2E6FD02868C7
:1010F00040016CD4286820F080702860FFF75CFA0B
:10110000064604E0FFF758FA801B022857D82868E3
:101110008001F7D4F4E90B016FF00F0202EB01112B
:101120000843218A5204490802EB4151A26841EA6E
:1011300002210843217D4FF07E42490802EB4161C4
:101140000843217B00E042E040EAC160E968214AAF
:1011500011400843E860286840F080702860E86823
:1011600040F08070E860FFF727FA044605E000BF12
:10117000FFF722FA001B022821D828688001F7D542
:1011800023E02868800120D4286840F0807028601F
:10119000E86840F08070E860FFF70EFA044604E06B
:1011A000FFF70AFA001B022809D828688001F7D542
:1011B0000BE000BFFFF700FA001B022802D9032052
:1011C000BDE8F88328688001F4D40020F8E7012006
:1011D000F6E700008C809D0170477047704710B59E
:1011E000040003D094F83D0010B107E0012010BDC9
:1011F000002084F83C00204600F00CF8022084F81F
:101200003D00211D206800F0ABFB012084F83D006B
:10121000002010BD704700000168CA6842F001025A
:10122000CA6001688868064A1040062806D0B0F5F2
:10123000803F03D0086840F001000860002070473C
:1012400007000100704770B50446006801694FF05F
:101250000005C943890715D4C168C943890711D45A
:10126000E91E0161012020772068806980072046FF
:1012700002D0FFF7E7FF04E000F0A7F8204600F0F7
:10128000A5F8257720680169C943490717D4C168C3
:10129000C943490713D46FF004010161022020778C
:1012A0002068806910F4407F204602D0FFF7CAFF13
:1012B00004E000F08AF8204600F088F825772068DE
:1012C0000169C943090716D4C168C943090712D483
:1012D0006FF008010161042020772068C069800751
:1012E000204602D0FFF7AEFF04E000F06EF8204683
:1012F00000F06CF8257720680169C943C90617D446
:10130000C168C943C90613D46FF0100101610820F8
:1013100020772068C06910F4407F204602D0FFF794
:1013200091FF04E000F051F8204600F04FF82577D7
:1013300020680169C943C90708D1C168C943C90701
:1013400004D1891E0161204600F042F8206801693D
:10135000C943090609D4C168C943090605D46FF019
:10136000800101612046FFF738FF20680169C94309
:10137000C90509D4C168C943090605D46FF4807151
:1013800001612046FFF728FF20680169C94349062B
:1013900009D4C168C943490605D46FF04001016111
:1013A000204600F01FF820680169C94389060BD464
:1013B000C168C943890607D46FF020010161204646
:1013C000BDE87040FFF70ABF70BD7047704700006E
:1013D00000680349884201D1FFF7F4B87047000064
:1013E000002C014070477047704700002DE9F04124
:1013F00002680446D0691168936840F60F052842D8
:101400004FF0000505D186067BD58E0679D5216E75
:1014100088E003F0010601F49077374371D0C707E5
:1014200007D0CF0505D501271762E26F42F0010210
:10143000E267820708D5DA0706D0276802223A62F7
:10144000E26F42F00402E267420708D5DA0706D0ED
:10145000236804221A62E26F42F00202E267020786
:101460000AD501F02002324306D0236808221A620E
:10147000E26F42F00802E267020509D54A0107D58A
:1014800023684FF400621A62E26F42F02002E267C2
:10149000E26F002A2ED0800605D5880603D5216E7E
:1014A00009B120468847E06F21688968490602D45F
:1014B00010F0280F20D0204600F022FB2068816821
:1014C000490614D5816821F040018160E06E70B159
:1014D0001D498163E06EFEF771FF00280AD0E06EBF
:1014E000816B00E02046BDE8F041084709E0204656
:1014F000FFF77AFFBDE8F0812046FFF775FFE5674B
:10150000F8E7C60209D55B0207D54FF480101062D8
:101510002046BDE8F041FFF766BF030605D50B0680
:1015200003D5616E0029DDD1E4E74006E2D5480627
:10153000E0D51168204621F040011160202161674B
:10154000656600F095F8D5E7ED1A000810B50400BF
:1015500002D0606F10B107E0012010BD002084F8B8
:101560007000204600F026F824206067206801689B
:1015700021F001010160204600F0D2FA0128ECD0F0
:10158000606A10B1204600F021FA2068416821F419
:10159000904141602068816821F02A0181602068C3
:1015A000016841F0010101602046BDE8104000F0F3
:1015B00071BA0000F0B587B0044614216846FEF702
:1015C000BEFE284F26680022274902230324072550
:1015D0004FF09040BE421FD10E6E46F480460E661C
:1015E0000E6E06F480460596CE6C46F00106CE647B
:1015F000C96C02AE01F0010105916102CDE9001351
:1016000086E834006946FEF701FF00220521252007
:10161000FFF752F8252021E0144FBE4220D18E6DF5
:1016200046F400368E658E6D06F400360596CE6C57
:1016300046F00106CE64C96C02AE01F001010591CD
:101640000C21CDE9001386E834006946FEF7DEFE82
:10165000002205212620FFF72FF82620FFF71EF88D
:1016600007B0F0BD003801400010024000440040C7
:101670007047FEE70948084901604FF4E1314160D5
:10168000002181600C22C160C0E904128161C16146
:1016900001624162FFF75ABF003801407400002028
:1016A0000948084901604FF4E1314160002181603F
:1016B0000C22C160C0E904128161C1610162416212
:1016C000FFF744BF00440040F4000020FEE77047ED
:1016D0002DE9F041444C05468846E0680026810724
:1016E00028680DD0E16801F00301814216D1A8B14C
:1016F000E0686968C0F30210401C88420ED120E007
:10170000012804D0022805D0032807D108E0216869
:10171000890701E021684905002907DB01265FE010
:101720002168890302D421684903F5E7E1686A6802
:101730006FF00F0321F0730103EB02121143014319
:10174000E160206820F080602060FEF735FF0746EA
:1017500005E000BFFEF730FFC01B022837D8206825
:101760000001F7D4B8F1000F18D0B8F1010F1DD067
:10177000287D4FF07E41400801EB4060A96840EAB7
:1017800001202169194A114008432061206840F076
:1017900080602060FEF710FF07461AE0A868297BEA
:1017A000000240EAC1602169114AECE7288A114928
:1017B000400801EB4050A96840EA012021690E4A27
:1017C000E1E700BFFEF7F8FEC01B022801D903269F
:1017D00006E020680001F5D52069A9690843206169
:1017E0003046BDE8F081000000100240FF80FFF9A4
:1017F000FF80FF070000E0FFFF809FFFF8B51C4D52
:1018000006460024A86DC00002D5FEF7BBFF0DE020
:10181000A86D40F08050A865A86D00F08050009041
:10182000FEF7B0FFA96D21F08051A965B0F5007FEA
:1018300004D0802E07D94FF003040AE0802E08D987
:10184000A02E01D804E001D1022402E0702E00D1C4
:1018500001240848016821F0070121430160006864
:1018600000F00700A04201D00120F8BD0020F8BD23
:101870000010024000200240012000F02FFBFBE797
:1018800010B5502080F31188BFF34F8FBFF36F8FD7
:1018900000F0ACFF18B104494FF080500860002000
:1018A00080F3118810BD000004ED00E010B5ACB06D
:1018B000442115A8FEF743FD142126A8FEF73FFD9D
:1018C00054216846FEF73BFD1020159001200024AE
:1018D000CDE91B0460201D901F9415A8FFF7C6F9E1
:1018E0000F20CDE9260428942994002126A82A94C3
:1018F000FFF796F803200090089409946846FEF7D5
:1019000049FF4FF40070FEF709FF2CB010BD000036
:101910000D48016841F4700101600C48016841F014
:1019200001010160002181600268094B1A400260D8
:101930008214C260026822F480220260816102493E
:10194000C00380390860704788ED00E00010024055
:10195000FFFFF6EA0148FFF776BC0000C80300204D
:1019600070B50268164B4FF08046984201D0B042E5
:1019700003D122F070044A682243124C124D98425F
:1019800005D0B04203D0A04201D0A84203D122F436
:101990004076CA6832434E6922F0800232430260C8
:1019A0008A68C2620A688262984203D0A04201D06B
:1019B000A84201D1096901630121416170BD0000A4
:1019C000002C0140004001400044014090F82410E8
:1019D000C90706D001684A68836A22F400321A43B4
:1019E0004A6090F82410890706D501684A68C36ADE
:1019F00022F480321A434A6090F82410490706D531
:101A000001684A68036B22F480221A434A6090F806
:101A10002410090706D501684A68436B22F4004286
:101A20001A434A6090F82410C90606D501688A68EE
:101A3000836B22F480521A438A6090F8241089063E
:101A400006D501688A68C36B22F400521A438A6083
:101A500090F82410490611D501684A68036C22F4F5
:101A600080121A434A60016CB1F5801F06D10168EB
:101A70004A68436C22F4C0021A434A6090F824106A
:101A8000090606D501684A68806C22F400220243E8
:101A90004A607047F8B500260446C667FEF78CFD1D
:101AA0000546206800686FF07E47000708D52B4682
:101AB00000224FF400112046009700F045F960B96C
:101AC0002068006840070AD52B4600224FF48001A9
:101AD0002046009700F038F908B10320F8BD202017
:101AE0006067A06784F870600020F8BD10B5806A58
:101AF0000021A0F85A10A0F85210FFF775FC10BD95
:101B000001680A6822F490720A6001688A6822F00B
:101B100001028A6020218167002101667047000070
:101B20002DE9F041044600682369A268E5691A437B
:101B3000636900272B431A437A4903687A4D2B4087
:101B40001343036020684268E36822F440521A435A
:101B500042602268A0698A4201D0236A18439368D0
:101B600023F4306303439360704B226870489A42B9
:101B70000DD1D0F8880010F0030006D0012838D02D
:101B8000022834D0032821D135E001251FE0694B1C
:101B90009A420BD1D0F8880010F00C0025D0042810
:101BA00027D0082823D00C2810D124E08A420DD158
:101BB000D0F8880010F4406017D0B0F5806F18D0CE
:101BC000B0F5006F13D0B0F5406F14D010255A4B0C
:101BD00000264FF400408A4245D175B1022D0FD046
:101BE000042D0FD0082D18D10FE00025EFE70225B6
:101BF000EDE70425EBE70825E9E7FEF7C1FF03E081
:101C0000184602E0FEF7E0FFA8B3626802EB42016B
:101C1000814202D8B0EB023F01D901276FE0DFF823
:101C20001C815DB1022D0CD0042D13D0082DF4D1F0
:101C300050082905401846F1000105E0FEF7A0FF15
:101C40000AE050083E49F5E70023FEF72BFBA0F51C
:101C5000407150E0FEF7B8FF6268010E03025008C1
:101C600018187141F0E7E1694FF6EF7881422FD102
:101C7000092DD2D200E042E0DFE805F00609200598
:101C8000230505052600C8E7FEF77AFF01E0FEF709
:101C900089FF4100D4F8040001EB5001B1FBF0F0E2
:101CA00080B2A0F110014145B7D84FF6F071014064
:101CB000C0F3420001432068C16020E02149606810
:101CC000EAE7FEF781FFE4E74FF480316068E3E77D
:101CD000092DA2D2DFE805F0060918051E05050545
:101CE00020009AE7FEF74CFF16E0FEF75BFF13E0DB
:101CF00080B2A0F1100141458FD82168C8602666E6
:101D000038466666BDE8F081606803EB5001B1FBC0
:101D1000F0F0EDE7FEF758FF616800EB5100B0FB13
:101D2000F1F0E5E700800040F369FFEF0038014083
:101D300000100240004400400024F400FFFC0F00AB
:101D4000000024F40048E8012DE9F0479A461746C0
:101D50000E4604464FF000094FF02008089D39E078
:101D6000681C37D0FEF728FCA0EB0A00A84222D856
:101D70000DB32068016849072CD5C069C043000530
:101D800028D421684FF4006008622068016821F4BB
:101D9000D07101602068816821F001018160C4F880
:101DA0007480C4F87880C4F87C8000BF84F8709098
:101DB0000320BDE8F0872068016821F4D07101603C
:101DC0002068816821F001018160C4F87480C4F842
:101DD0007880EBE72068C06936EA000004D0002074
:101DE000B842BDD00020E4E70120F9E70148FFF741
:101DF000FDBA0000740000200148FFF7F7BA0000A8
:101E0000F4000020FEE70907090E002804DB00F1BA
:101E1000E02080F80014704700F00F0000F1E0208F
:101E200080F8141D704702E008C8121F08C1002A7C
:101E3000FAD170477047002001E001C1121F002A4B
:101E4000FBD170478EB0FEF7C5FBFFF72FFD1421C5
:101E50006846FEF774FA1A48C16C41F00101C1648A
:101E6000C16C01F001010C91C16C41F00201C1642F
:101E7000C06C144C00F002000C9000220821204697
:101E8000FEF795FB0820009001200021CDE901011B
:101E9000039169462046FEF7B9FAFFF7EBFBFFF71F
:101EA000FFFB1C22084905A8FEF730FA002105A80F
:101EB00000F020F80549086000F017F8FEE7000080
:101EC00000100240000400487829000800000020AB
:101ED00001460020842900D0C81C704710B500B905
:101EE000012000F01BFB002010BD10B500F03CFBF2
:101EF000002010BD7FB50D4604464169B0F90800C9
:101F000081B1A16971B1FFF7E3FFD4E905128DE852
:101F10000700D4E900102B46226900F03BFC039037
:101F200004B070BDFFF7D4FF03A9CDE90001208AFA
:101F30002B4682B2D4E9001000F0FCFB012801D04E
:101F40000020EDE70398EBE72DE9F041184C0F4630
:101F5000054666692068001D00F01CFA38B9206843
:101F600090F82C1001208840A1698143A161681C70
:101F700007D137B12168BDE8F0410E48091D00F0D6
:101F80004DBA20683544B5424560216805D2A06845
:101F9000BDE8F041091D00F029BA6068091D00F094
:101FA00025FA206B854200D22563BDE8F081000050
:101FB00014000020E40400202DE9F041054600F063
:101FC00039FA2E4C2069401C206120682C4F10B13A
:101FD000E06940B32DE025602069012829D1002661
:101FE00006EB860007EB800000F0F2F9761C072E66
:101FF000F6D323488C3000F0EBF92148A03000F0F4
:10200000E7F91F48B43000F0E3F91D48C83000F08C
:10201000DFF91B48DC3000F0DBF919488C306060D8
:102020001430A06005E02068E96AC06A884200D8E0
:102030002560E06A401CE062E96A0120A2698840EC
:102040001043A06101EB810007EB8000291D00F027
:10205000E5F900F00FFAE06900280CD02068E96A81
:10206000C06A884207D207494FF080500860BFF32A
:102070004F8FBFF36F8FBDE8F08100001400002088
:102080000804002004ED00E010B5044690F851006B
:1020900058B101280CD002280FD0502080F31188AD
:1020A000BFF34F8FBFF36F8FFEE7206B00F0F6F9A1
:1020B0002046BDE8104000F0F1B910BD0F4840F6D1
:1020C000B831420705D0C01D0C4A20F00700821A23
:1020D000891A0B4A00230144C2E900030839103A67
:1020E00021F0070111604B600B600B1AC0E900136F
:1020F00093604FF000405360D0607047F8040020B8
:1021000060000020144E154CA6F1C8074FF080580F
:10211000DFF84C9012E000BF00F08CF9F068C56861
:10212000281D00F037F92069401E2061E068401E3C
:10213000E06000F09FF92846FFF7A6FFE06800285E
:10214000EAD138680128F9D9C9F80080BFF34F8F68
:10215000BFF36F8FF2E70000D004002014000020CE
:1021600004ED00E02DE9F0479A46DDE90984814657
:102170006FF00303206B03EB82021044089E20F0F3
:102180000707780707D0502080F31188BFF34F8FDF
:10219000BFF36F8FFEE7002561B1002023180A5CB2
:1021A00083F834200A5C12B1401C1028F6D384F85E
:1021B000435001E084F83450072E00D30626E6622F
:1021C000C4E91165201D00F00EF904F1180000F0BB
:1021D0000AF92461C6F107006462A061E56484F82D
:1021E000505052464946384600F0BEF82060B8F1DB
:1021F000000F01D0C8F80040BDE8F08730B51149A4
:1022000000E011460A688242FBD34B685C188442A6
:1022100003D1406818444860084643681C1894423B
:1022200009D1084C103C2468A24209D052681A44D3
:1022300042600A6812680260814200D0086030BDC6
:102240000460F9E76000002006484168096829B188
:102250004168C968C9684968016370474FF0FF3138
:10226000FAE700001400002008484068401C4FF0C6
:10227000500080F3118804D0BFF34F8FBFF36F8FEE
:10228000FEE7BFF34F8FBFF36F8FFEE768000020BC
:102290002DE9F0410546002700F09CF9314E3068E9
:1022A00008B9FFF70BFFF06805424BD1C5B30835FD
:1022B00068070ED005F00700C0F108000544680764
:1022C00007D0502080F31188BFF34F8FBFF36F8F7B
:1022D000FEE72DB37068854234D82248103001469D
:1022E0000C6801E020460C466168A94202D22168D0
:1022F0000029F7D131688C4224D007682168016039
:1023000060680837411B10290FD96019420708D0AF
:10231000502080F31188BFF34F8FBFF36F8FFEE71C
:1023200010E041606560FFF769FF61687068401AFE
:102330007060B268904200D2B060F0680143002043
:10234000C4E9000100F0B6FA780707D0502080F306
:102350001188BFF34F8FBFF36F8FFEE73846BDE89C
:10236000F08100005000002010B5031F4FF0807472
:102370001C601B1F21F001011960191F044B0B6029
:1023800014390A60091F6FF0020244380A6010BD58
:1023900069220008D0E9013201699A60D0E901237D
:1023A0005A604A68824201D182684A600022026112
:1023B0000868401E0860086870470000034B03600F
:1023C00003F1540008608020106070477401002001
:1023D00000F108014FF0FF32C0E90112C160016154
:1023E00000210160704700210161704730B50B6822
:1023F0005A1C02D000F1080202E0026904E0224601
:10240000546825689D42FAD953684B6099608A6088
:10241000516008610168491C016030BD42684A6032
:1024200093688B6093685960916008610168491CEA
:1024300001607047502080F31188BFF34F8FBFF3C6
:102440006F8F0A494868401C486001280CD1084831
:10245000006810F0FF0F07D0502080F31188BFF301
:102460004F8FBFF36F8FFEE77047000068000020BA
:1024700004ED00E00849486828B1401E486001D1D9
:1024800080F311887047502080F31188BFF34F8F7D
:10249000BFF36F8FFEE700006800002070B50028D2
:1024A00027D0144DA0F108046168E868014207D103
:1024B000502080F31188BFF34F8FBFF36F8FFEE77B
:1024C00022683AB1502080F31188BFF34F8FBFF3D9
:1024D0006F8FFEE78143616000F07CF86068696897
:1024E000084468602046FFF789FEBDE8704000F0B0
:1024F000E1B970BD500000204FF0E02000210161E3
:10250000816105494FF47A720968B1FBF2F1491E05
:1025100041610721016170471000002010B50200E1
:1025200014D00F48806B38B1502080F31188BFF36E
:102530004F8FBFF36F8FFEE700F04CF8002110467D
:10254000FFF702FD00F0B6F9002807D105494FF06A
:1025500080500860BFF34F8FBFF36F8F10BD000036
:102560001400002004ED00E010B586B000240394B0
:1025700005AA04A903A80494FFF720FFDDE90301DD
:102580000094CDE9011000230EA11048059A00F037
:1025900001F90F490028486311D0502080F31188B9
:1025A000BFF34F8FBFF36F8F4FF0FF3008630120F1
:1025B000C8614C6106B0BDE8104000F041B806B0FB
:1025C00010BD000049444C450000000005210008F2
:1025D000140000200248816B491C81637047000091
:1025E000140000201448816B11B101214162704731
:1025F000002141628169B1FA81F1C1F11F0101EB52
:1026000081020E4951F822306BB101EB820101F1D8
:1026100008034A6852684A609A4201D152684A6087
:10262000D16801607047502080F31188BFF34F8F4D
:10263000BFF36F8FFEE700001400002008040020A5
:102640001CB537480168374A914207D1502080F3C2
:102650001188BFF34F8FBFF36F8FFEE700683149DA
:10266000491E884207D1502080F31188BFF34F8F55
:10267000BFF36F8FFEE72C4908780190FF200870A8
:1026800008788DF800009DF800009DF8002000F00B
:10269000F000904207D0502080F31188BFF34F8F95
:1026A000BFF36F8FFEE79DF80000204B00F0500055
:1026B00018700720986005E09DF8002052008DF802
:1026C0000020401E9DF800201206F5D498600328D3
:1026D00007D0502080F31188BFF34F8FBFF36F8F67
:1026E000FEE74FF440709860019808700C48203065
:1026F000016841F470010160016841F070410160BE
:10270000FFF7FAFE00205860FDF76EFD08480168EB
:1027100041F040410160FDF753FD00201CBD000069
:1027200000ED00E071C20F4100E400E0680000200D
:1027300034EF00E02DE9FF5F8346DDE90E8799461F
:1027400016468A469000FFF7A3FD05001CD05420D2
:10275000FFF79EFD040014D00020256384F851008B
:10276000CDE90240CDE900874B46324651465846F6
:10277000FFF7F8FC2046FFF71FFC012004B000F033
:1027800006B82846FFF78AFE4FF0FF30F6E730BC68
:10279000BDE8C09FF0B585B0DDE90B640A9DA6B128
:1027A000DCB1542700972663022684F85160002686
:1027B00004AFCDE90246CDE90057FFF7D3FC204630
:1027C000FFF7FAFB049805B0F0BD502080F31188A4
:1027D000BFF34F8FBFF36F8FFEE7502080F3118858
:1027E000BFF34F8FBFF36F8FFEE700002DE9F0417D
:1027F0002E4C0027A06B40B1206A401C2062606A0A
:1028000000B101273846BDE8F0816669761C666133
:1028100013D16068006838B1502080F31188BFF38D
:102820004F8FBFF36F8FFEE76068A1686160A060A3
:10283000A06A401CA062FFF707FD206BDFF87080E4
:10284000864209D36068006880B16068C068C56866
:10285000686886420DD220632068C06A00EB800160
:1028600058F821000128CAD90127C8E74FF0FF30E6
:10287000F1E7281DFFF78EFDA86A18B105F11800D1
:10288000FFF788FDE86A0121A26981401143A16137
:1028900000EB800108EB8100291DFFF7BFFDE86A0E
:1028A0002168C96A8842CDD30127CBE714000020F4
:1028B000080400202DE9F0472C4D00242746A86B82
:1028C00038B1FFF7B7FDA86B401EA863A86B40B1F5
:1028D00046E0502080F31188BFF34F8FBFF36F8F16
:1028E000FEE72969224E0120D1B3A6F1B409804642
:1028F0003068E8B1F068C46804F11800FFF74AFDD9
:10290000201DFFF747FDE06AAA6908FA00F11143AC
:10291000A96100EB800109EB8100211DFFF77EFD1D
:10292000E06A2968C96A8842E2D3C5F82480DFE7F3
:102930000CB1FFF789FC2C6A44B14646FFF756FFFD
:1029400000B16E62641EF9D100202862686A38B155
:102950000849012738070860BFF34F8FBFF36F8F17
:10296000FFF788FD3846BDE8F0870000140000201E
:10297000BC04002004ED00E0DC2900087918000800
:1029800000000000000000008000000000000000C7
:10299000000000000000000000000000010203042D
:1029A00006070809A0860100400D0300801A0600F2
:1029B00000350C0040420F0080841E0000093D00DD
:1029C00000127A000024F40000366E010048E8018D
:1029D000006CDC0200000000010203046465666113
:1029E000756C745461736B00082A000800000020A5
:1029F00074000000261E00087C2A000874000020D5
:102A00003C140000361E000800000000100000000A
:102A1000010000000000000000093D00000000006F
:102A200000000000000000000000000000000000A6
:102A30000000000000000000000000000000000096
:102A40000000000000000000000000000000000086
:102A50000000000000000000000000000000000076
:102A60000000000000000000000000000000000066
:0C2A700000000000AAAAAAAA00000000B2
:040000050800018D61
:00000001FF
