:020000040800F2
:1000000088050020A1010008FB220008B51A00089D
:10001000F9220008D1020008892A00080000000027
:10002000000000000000000000000000A9240008FB
:10003000D302000800000000FD220008AB240008E5
:10004000BB010008BB010008BB010008BB010008A0
:10005000BB010008BB010008BB010008BB01000890
:10006000BB010008BB010008BB010008BB01000880
:10007000BB010008BB010008BB010008BB01000870
:10008000BB010008BB010008BB010008BB01000860
:10009000BB010008BB010008BB010008BB01000850
:1000A000BB010008BB010008BB010008BB01000840
:1000B000BB0100080000000000000000C51A000895
:1000C000B91A00080000000000000000BB01000891
:1000D000000000002D2A0008692A00080000000026
:1000E000BB010008BB010008000000000000000088
:1000F0000000000000000000000000000000000000
:10010000000000000000000000000000BB0100082B
:100110000000000000000000BB010008BB01000857
:10012000BB010008BB010008BB010008BB010008BF
:10013000BB010008000000000000000000000000FB
:10014000BB010008BB010008BB010008BB0100089F
:10015000BB010008BB010008BB010008BB0100088F
:10016000BB010008BB010008BB0100080000000043
:10017000BB010008BB0100080000000000000000F7
:10018000BB010008BB010008BB010008DFF80CD070
:1001900000F08CF8004800473D2C0008880500203E
:1001A0000648804706480047FEE7FEE7FEE7FEE711
:1001B000FEE7FEE7FEE7FEE7FEE7FEE7152500089F
:1001C0008D0100082DE9F05F0546002092469B4610
:1001D00088460646814640241BE02846414647465D
:1001E000224600F052F853465A46C01A914110D3A5
:1001F00011461846224600F039F82D1A67EB01081F
:100200004F4622460120002100F030F817EB00098C
:100210004E41201EA4F10104DFDC484631462A4647
:10022000434600F000B830BCBDE8C09FD2B201E048
:1002300000F8012B491EFBD270470022F6E710B5EB
:1002400013460A4604461946FFF7F0FF204610BD44
:1002500010B5002200E0521C835C8C5CA34201D1EB
:10026000002BF8D1D8B2E1B2401A10BD202A04DB2D
:10027000203A00FA02F1002070479140C2F12003B9
:1002800020FA03F3194390407047202A04DB203AF8
:1002900021FA02F00021704721FA02F3D040C2F1A6
:1002A000200291400843194670470000064C074D54
:1002B00006E0E06840F0010394E807009847103436
:1002C000AC42F6D3FFF766FF002E0008202E000890
:1002D000FEE7704710B590F825100024022903D0DE
:1002E0000421C16301241AE001680A6822F00E02A9
:1002F0000A6001680A6822F001020A6090F844105E
:10030000036C01F01C02012101FA02F25A6080F82C
:100310002510002180F82410816B01B18847204608
:1003200010BD90F82500704770B5044600F0ECF859
:100330000546601C02D004484068044400F0E4F81C
:10034000401BA042FAD370BD1C0000202DE9FC4FD9
:10035000DFF880A1002301250AF1040B03244FF0EC
:100360000F0C0BF1040EAEE005FA03F632406FD02D
:100370004F68012F05D0022F03D0112F01D0122F6B
:1003800017D1D0F808905F0004FA07F829EA0809A5
:100390000097D1F80C8008FA07F848EA0908C0F875
:1003A00008804768B7430E79C6F300169E403E4367
:1003B0004660C6684FEA430804FA08F7BE4301974F
:1003C0008F6807FA08F73743C7604E68022E01D0DE
:1003D000122E13D1DE0800EB86060096366A5F0700
:1003E000FF0E0CFA07F926EA0906D1F8109009FA6F
:1003F00007F949EA0609009EC6F820900768019EA1
:10040000B7430E7906F0030606FA08F63E43066087
:100410004E68F60056D5304E376E47F00107376606
:10042000366E23F0030706F0010600962B4E3E447D
:10043000B146B6689F074FEA17780CFA08F7BE4333
:10044000B0F1904F05D0264FB84204D1012708E003
:1004500038E0002705E0234FB84201D1022700E031
:10046000072707FA08F73743C9F80870DAF8006079
:100470005746D1F8048096435FEAC83800D5164342
:100480003E60DBF800605F46D1F8048096435FEA87
:10049000883800D516433E60DEF800607746D1F814
:1004A000048096435FEAC82800D516433E60094F92
:1004B0000C373E68D1F8048096435FEA882800D55F
:1004C00016433E605B1C0A6832FA03F67FF44CAFB9
:1004D00000F00AB800040140001002400000014092
:1004E00000040048000800481CBCBDE8E08F4269D9
:1004F0000A4201D081627047816170470AB181610F
:1005000070478162704700000148806870470000B2
:100510001C00002090F84120202A24D190F840208F
:10052000012A20D0012280F84020242280F8412096
:100530000268136823F0010313600268136823F450
:1005400080531360026813680B43136001680A68E4
:1005500042F001020A60202180F84110002180F859
:100560004010084670470220704790F84120202A2A
:1005700022D190F84020012A1ED0012280F840208C
:10058000242280F841200268136823F001031360DD
:100590000268136823F4706343EA01211160016863
:1005A0000A6842F001020A60202180F8411000210F
:1005B00080F8401008467047022070477047704727
:1005C00030B403689A691968D243D40509D4CC437E
:1005D000240606D4446C44F0010444644FF480744F
:1005E000DC6153050AD4CB431B0607D4436C43F0AC
:1005F0000803436404684FF48063E36192050AD4FE
:10060000C943090607D4416C41F002014164026804
:100610004FF40071D161416C11F00B0F02D030BC6E
:1006200001F0E6BA30BC7047026891691268436B0A
:10063000002B00D0184770477047000070B50400C9
:1006400004D094F84100002510B106E0012070BDEF
:1006500084F84050204600F00FFA242084F841002E
:100660002068016821F0010101606068216820F0C4
:10067000706008612068816821F400418160E06851
:100680000128A06807D040F4044021688860E06831
:10069000022803D006E040F40040F6E721684FF45A
:1006A0000060486020684168114A11434160206839
:1006B000C16821F40041C160D4E904010843A16983
:1006C00040EA01202168C860D4E907010843216895
:1006D00008602068016841F0010101606564202024
:1006E00084F84100256384F84250002070BD00006A
:1006F000008000022DE9FC4700260446019690F890
:1007000041001F469246894620287ED12068806994
:10071000C043000479D594F84000012875D0012029
:1007200084F84000242084F8410066644FF02008DB
:10073000E068012809D029F4544040F42050216891
:100740004860FFF7E1FE05460DE0314949EA010046
:1007500030490840F3E7781C05D0FFF7D5FE401B71
:10076000B84219D8C7B1216888698969C0F34010B7
:10077000C1F300110843EED0206880693B46C043B6
:10078000C0064FF000024FF020012046009517D51B
:1007900001F0A9FC68BB09E084F8418054F8440FDB
:1007A00040F0200044F80409267022E02168C1F8D6
:1007B0001C8084F8418084F84060002000F02CB850
:1007C00001F091FCA8B921681020C8612168C1F826
:1007D0001C800198504512D12068416841F4804145
:1007E00041603B46002220212046009501F07BFC21
:1007F00010B10120E2E708E02168C1F81C800198EF
:10080000401C0190504593D3C6E70220D6E7000074
:1008100000200002FF2300020CBCBDE8F0877047F7
:100820002DE9F84F044690F84100DDF828A01F4656
:1008300090468B4620287ED194F8400001287AD03B
:10084000012084F84000FFF75FFE06460122009079
:100850001923D103204601F046FCE0BB222084F896
:100860004100102084F8420000256564C4F824800B
:1008700067856563618D3148FF274FF080784FF0C1
:100880000079FF2903D927853A46009039E0618D28
:10089000218500903AE05946204601F0F9FB13E02B
:1008A00001F04EFCB8B92068406A616A0870606A5D
:1008B000401C6062208D401E80B22085618D491EE3
:1008C0006185618D01B168B1608D32460028514665
:1008D0002046E5D100E002E001F074FCD0B1012037
:1008E00000F030B85346002280212046009601F0E7
:1008F000FAFB0028F3D1608DFF2804D927853A46FA
:1009000000954346C7E7608D2085009594F8282020
:100910004B46C0E721682020C86121684A68084B1F
:100920001A404A6084F8410084F8425084F84050EC
:100930000020D5E7FFE70220D2E700000024008076
:1009400000E800FE18BCBDE8E08F00002DE9F84F7C
:10095000044690F84100DDF828A01F4690468B46DB
:1009600020287ED194F8400001287AD0012084F814
:100970004000FFF7C9FD0646012200901923D1036C
:10098000204601F0B0FBE0BB212084F8410010209C
:1009900084F8420000256564C4F824806785656397
:1009A000618D3148FF274FF080784FF00079FF29A3
:1009B00003D927853A46009039E0618D2185009062
:1009C0003AE05946204601F063FB13E001F020FCB9
:1009D000B8B9606A216800788862606A401C606209
:1009E000608D401E6085208D401E80B22085618D07
:1009F00001B168B1608D3246002851462046E5D1EC
:100A000000E002E001F0DEFBD0B1012000F030B8E0
:100A10005346002280212046009601F064FB002806
:100A2000F3D1608DFF2804D927853A4600954346C7
:100A3000C7E7608D2085009594F828204B46C0E7D5
:100A400021682020C86121684A68084B1A404A6022
:100A500084F8410084F8425084F840500020D5E7E3
:100A6000FFE70220D2E700000020008000E800FE3F
:100A700018BCBDE8E08F000010B586B00446142114
:100A80006846FFF7DAFB1A49206888422ED1194CD4
:100A9000E06C40F00200E064E06C694600F00200A7
:100AA0000590C020009012200190012002900320A8
:100AB0000390042004901048FFF748FCA06D40F418
:100AC0000010A065A06D002200F4001005901146F2
:100AD0001F2000F073F81F2000F062F8002211467A
:100AE000202000F06BF8202000F05AF806B010BD6E
:100AF0000054004000100240000400487047704756
:100B00000248816842681144816070471C000020DF
:100B100010B50024032000F071F8002000F008F860
:100B200008B1012401E000F025F8204610BD0000C6
:100B300070B50E4E05460024706898B14FF47A7176
:100B4000B1FBF0F00A490968B1FBF0F000F0A6FD36
:100B500040B9102D06D200222946501E00F02EF872
:100B6000356000E00124204670BD00001C0000201C
:100B700028000020094808B5016E41F00101016616
:100B8000016E01F001010091816D41F0805181659C
:100B9000806D00F08050009008BD00000010024001
:100BA000002809DB00F01F0201219140400980006C
:100BB00000F1E020C0F8001170470000F0B40E4BC7
:100BC0001B680C46C3F30223C3F10705042D00D9AB
:100BD0000425191D072901D2002300E0DB1E012690
:100BE00006FA05F1491E214099409E40761E1640A6
:100BF0003143F0BC01F049BF0CED00E0064900F0C4
:100C0000070208684FF6FF03184040EA0220034A33
:100C100010430860704700000CED00E00000FA058A
:100C20001649B0F5007F0868C0F3412009D00228BA
:100C300005D0086820F4C06040F48060086000209F
:100C400070470128FBD0086820F4C06040F40070B1
:100C500008600B483222006850430A4AB0FBF2F0A9
:100C6000401C00E0401E4A69520501D50028F9D118
:100C700048694005E3D5032070470000007000403C
:100C80002800002040420F000248006800F4C060C5
:100C900070470000007000402DE9F84F044600271F
:100CA00000889C4D3E46000515D5E06B60B1B0F55F
:100CB000000F04D0B0F5400F2BD001270AE0E86800
:100CC00040F48030E86024E00021201D01F018FB92
:100CD00007001ED03E462068800338D5A86D4FF02F
:100CE0000008C00009D4A86D40F08050A865A86D28
:100CF0004FF0010800F080500090DFF81CA2DAF8F5
:100D0000001041F48071CAF80010FFF7FDFB814626
:100D100010E0D5F88800E16B20F440000843C5F8E6
:100D20008800D8E7FFF7F0FBA0EB0900022801D903
:100D3000032704E0DAF80000C005F3D5EFB33E4620
:100D4000B8F1000F03D0A86D20F08050A86520787E
:100D5000C00707D0D5F88800216A20F003000843B7
:100D6000C5F888002078800707D5D5F88800616A23
:100D700020F00C000843C5F888002078800607D5CD
:100D8000D5F88800A16A20F440600843C5F88800BF
:100D90002088800507D5D5F88800616B20F44020B5
:100DA0000843C5F888002088400509D5D5F8880093
:100DB000A16B20F44010084300E02EE0C5F8880045
:100DC0002078400607D5D5F88800E16A20F4405025
:100DD0000843C5F888002088C00507D5D5F88800E5
:100DE000216B20F440300843C5F8880020884FF07C
:100DF000006780044FF080684ED5D5F88800216CDC
:100E000020F040600843C5F88800206CB8423BD110
:100E1000E86840F48010E8603EE0D5F8900010F4F7
:100E2000407014D0216D814211D0D5F89000D5F8D2
:100E3000901020F4407041F48031C5F89010D5F83E
:100E4000901021F48031C5F89010C5F89000C007CB
:100E500011D0FFF759FB074641F2883907E000BF80
:100E6000FFF752FBC11B494501D9032668E7D5F8B6
:100E700090008007F4D5D5F89000216D20F44070E3
:100E80000843C5F890005BE7404505D10121201DCE
:100E900001F036FA00B106462068400317D5D5F8B0
:100EA0008800616C20F040600843C5F88800606CE1
:100EB000B84204D1E86840F48010E86007E040459B
:100EC00005D10121201D01F01BFA00B10646208842
:100ED000400411D5D5F88800A16C20F0405008439B
:100EE000C5F88800A06CB0F1805F05D10221201DFB
:100EF00001F006FA00B106462088000406D555F830
:100F0000880FE16C20F0804008432860304600F0F4
:100F100005B80000001002400070004018BCBDE899
:100F2000E08F00002DE9F0470F46050058D0404EF5
:100F3000306800F00700B84209D2306820F007009E
:100F400038433060306800F00700B84248D1287854
:100F5000384CC0072CD06868032811D0022812D062
:100F6000216898B1490500293ADAA16821F0030106
:100F70000143A160FFF7C8FA804641F2883910E0CA
:100F800021688901EFE721688903ECE78907EAE72F
:100F9000FFF7BAFAA0EB0801494502D90320BDE8E2
:100FA000F087A068696800F00C00B0EB810FEFD10A
:100FB0002878800705D5A068A96820F0F0000843CC
:100FC000A060306800F00700B8420BD9306820F00C
:100FD000070038433060306800F00700B84201D0A5
:100FE0000120DCE72878400705D5A068E96820F4EF
:100FF000E0600843A0602878000706D5A06829694A
:1010000020F4605040EAC100A06000F03FF8A16801
:10101000094AC1F30311515C01F01F01C84007499F
:10102000086007480068BDE8F047FFF781BD000091
:101030000020024000100240B82D000828000020C7
:101040001C0000200548064900688968054AC1F36C
:101050000221515C01F01F01C840704728000020A8
:1010600000100240F82D000805480649006889680C
:10107000054AC1F3C221515C01F01F01C84070470D
:101080002800002000100240F82D000870B5254906
:10109000002318468A68CC6812F00C0204F003069C
:1010A000214C4FEA640509D00C2A05D0042A32D01D
:1010B000082A00D1284670BD012E10D10B681B07ED
:1010C00004D4D1F89430C3F3032302E00B68C3F3D4
:1010D0000313164E56F82330DAB10C2AEBD1C86848
:1010E00000F00300022818D0032818D01846CA6858
:1010F000CB68C2F30212C3F306234343521CB3FB73
:10110000F2F2C868C0F34160401C4000B2FBF0F04E
:1011100070BD184670BD204670BD2046E7E72846E2
:10112000E5E70000001002400024F400C82D00088C
:101130002DE9F84304006FD0FE4DA86800F00C06BE
:10114000E86800F003072078C00664D576B10C2E5D
:1011500001D1012F0AD0A069002828687AD040F078
:1011600001002860FFF7D0F980465DE0286880071D
:1011700002D5A0690028DED0216A2868000703D5BF
:10118000286800F0F00004E0D5F89400F02202EAAC
:101190001010814216D9084601F048F900283BD1C9
:1011A000286840F0080028602868216A20F0F000D4
:1011B000084328606868E16920F47F4040EA012024
:1011C000686016E0286840F0080028602868216AF6
:1011D00020F0F000084328606868E16920F47F404F
:1011E00040EA0120686026B9206A01F01FF9002852
:1011F000D5D1FFF74BFFA968CF4AC1F30311515C6A
:1012000001F01F01C840CD490860CD480068FFF7D4
:101210008FFC00287ED12EE0CAE000BFFFF774F9F2
:10122000A0EB0800022876D828688007F6D5286841
:1012300040F0080028602868216A20F0F000084388
:1012400028606868E16920F47F4040EA0120686016
:1012500011E0FFE720F001002860FFF755F9804614
:1012600006E000BFFFF750F9A0EB08000228DAD82B
:1012700028688007F6D42078C00740D0082E18D000
:101280000C2E01D1032F14D06068B0F5803F17D029
:10129000B0F5A02F286817D020F480302860286887
:1012A00020F4802028606068E0B1FFF72DF98046C7
:1012B00014E02868800322D56068002878D01EE0FA
:1012C000286840F48030EDE740F480202860F7E79C
:1012D000FFF71AF9A0EB08006428A4D82868800357
:1012E000F6D50CE0FFF710F9804605E0FFF70CF9A2
:1012F000A0EB0800642896D828688003F6D42078EC
:1013000080073BD5042E11D00C2E01D1022F0DD019
:10131000E06801E0B6E1FFE0002828681ED040F454
:1013200080702860FFF7F0F807460CE02868400559
:101330000CD5E0680028C1D008E000BFFFF7E4F852
:10134000C01B022893D828684005F7D56868217C1F
:1013500020F0F85040EA016068600FE020F48070EF
:101360002860FFF7D1F8074605E000BFFFF7CCF88B
:10137000C01B0228B1D828684005F7D420780007A0
:1013800029D560690028D5F8940012D040F00100FA
:10139000C5F89400FFF7B8F8074604E0FFF7B4F883
:1013A000C01B022899D8D5F894008007F6D512E022
:1013B0002BE120F00100C5F89400FFF7A5F80746DF
:1013C00005E000BFFFF7A0F8C01B022885D8D5F8BC
:1013D00094008007F6D42078400766D5A86D0027D2
:1013E000C00008D4A86D40F08050A865A86D012702
:1013F00000F08050009053480168C90512D401687C
:10140000814641F480710160FFF77EF8804605E077
:10141000FFF77AF8A0EB080002287DD8D9F8000081
:10142000C005F5D5A068012816D00528D5F890008C
:1014300017D020F00100C5F89000D5F8900020F0FA
:10144000040000BFC5F89000A06841F28839C0B11F
:10145000FFF75AF880460FE0D5F8900040F0010001
:10146000F0E740F00400C5F89000F5E7FFF74CF80E
:10147000A0EB080149454FD8D5F890008007F5D575
:101480000EE0FFF741F8804606E000BFFFF73CF8AA
:10149000A0EB080149453FD8D5F890008007F5D466
:1014A0001FB1A86D20F08050A8652078800628D54F
:1014B000606A0028D5F8980012D040F00100C5F805
:1014C0009800FFF721F8074605E000BFFFF71CF87A
:1014D000C01B022820D8D5F898008007F6D510E068
:1014E00020F00100C5F89800FFF70EF8074604E069
:1014F000FFF70AF8C01B02280ED8D5F8980080071D
:10150000F6D4A06AA8B1022824D00C2E7DD0286879
:1015100020F08070286000E0B3E02868000103D468
:10152000E86820F00300E860E86807490840E860E0
:101530000CE09FE000100240B82D000828000020B9
:101540001C00002000700040FFFFEEFEFEF7DCFFF5
:10155000044699E0E868E26A00F00301914226D16E
:10156000216B00F070020901103991421FD1626BAA
:1015700000F4FE41B1EB022F19D194F8382000F0AD
:101580007841B1EBC26F12D1A18F00F4C0024908BB
:101590004905A1F50011914209D194F8401000F0DD
:1015A000C06049084906A1F1007181424BD00C2E60
:1015B0006FD0286840016CD4286820F080702860C3
:1015C000FEF7A2FF064604E0FEF79EFF801B0228FE
:1015D00057D828688001F7D4F4E90B016FF00F02A7
:1015E00002EB01110843218A5204490802EB4151E0
:1015F000A26841EA02210843217D4FF07E4249085A
:1016000002EB41610843217B00E042E040EAC16017
:10161000E968214A11400843E860286840F080707A
:101620002860E86840F08070E860FEF76DFF0446CF
:1016300005E000BFFEF768FF001B022821D82868DC
:101640008001F7D523E02868800120D4286840F085
:1016500080702860E86840F08070E860FEF754FF12
:10166000044604E0FEF750FF001B022809D8286852
:101670008001F7D50BE000BFFEF746FF001B0228F4
:1016800002D90320BDE8F88328688001F4D4002043
:10169000F8E70120F6E700008C809D0110B5401EA0
:1016A000B0F1807F01D3012010BD4FF0E0246061D4
:1016B0000F21601701F0E9F90020A06107202061E7
:1016C000002010BD704770472DE9F04102680446C4
:1016D000D0691168936840F60F0528424FF0000565
:1016E00005D186067BD58E0679D5216E88E003F07C
:1016F000010601F49077374371D0C70707D0CF05B3
:1017000005D501271762E26F42F00102E267820706
:1017100008D5DA0706D0276802223A62E26F42F063
:101720000402E267420708D5DA0706D023680422DC
:101730001A62E26F42F00202E26702070AD501F084
:101740002002324306D0236808221A62E26F42F078
:101750000802E267020509D54A0107D523684FF45C
:1017600000621A62E26F42F02002E267E26F002A32
:101770002ED0800605D5880603D5216E09B12046F6
:101780008847E06F21688968490602D410F0280F65
:1017900020D0204600F07AFF20688168490614D5E1
:1017A000816821F040018160E06E70B11D49816364
:1017B000E06EFEF78FFD00280AD0E06E816B00E03E
:1017C0002046BDE8F041084709E02046FFF77BFFCF
:1017D000BDE8F0812046FFF776FFE567F8E7C6022F
:1017E00009D55B0207D54FF4801010622046BDE892
:1017F000F041FFF767BF030605D50B0603D5616E01
:101800000029DDD1E4E74006E2D54806E0D51168BD
:10181000204621F04001116020216167656600F0DB
:1018200048F9D5E77926000810B5040002D0606FAA
:1018300010B107E0012010BD002084F870002046A0
:1018400000F026F8242060672068016821F001017B
:101850000160204600F084FF0128ECD0606A10B1DE
:10186000204600F079FE2068416821F490414160F3
:101870002068816821F02A0181602068016841F0B8
:10188000010101602046BDE8104000F0C9BE000023
:10189000F0B587B0044614216846FEF7CEFC284F09
:1018A0002668002227490223032407254FF0904091
:1018B000BE421FD10E6E46F480460E660E6E06F4D2
:1018C00080460596CE6C46F00106CE64C96C02AE29
:1018D00001F0010105916102CDE9001386E83400B1
:1018E0006946FEF733FD002211462520FFF766F911
:1018F000252021E0144FBE4220D18E6D46F40036E3
:101900008E658E6D06F400360596CE6C46F00106A7
:10191000CE64C96C02AE01F0010105910C21CDE944
:10192000001386E834006946FEF710FD00221146D8
:101930002620FFF743F92620FFF732F907B0F0BD64
:1019400000380140001002400044004030B5836F71
:10195000202B4BD1B1B1AAB190F87030012B45D0FA
:10196000012380F870304165A0F85820A0F85A2073
:10197000002101661D038268FF23AA4207D1026984
:1019800012B125E0012030BD40F2FF1226E07F2495
:10199000E2B1B2F1805F1ED0A0F85C10C1672222D4
:1019A00082670268936843F0010393608268AA42E9
:1019B00001D10269C2B10E4A026680F87010006857
:1019C000016841F490710160002030BD026942B9A4
:1019D000A0F85C30E2E702691AB13F22A0F85C206F
:1019E000DCE7A0F85C40D9E7024AE5E7022030BD19
:1019F00005270008AB260008704700002DE9F843D2
:101A00000446406F1F4616460D4620284FD1CDB1E3
:101A1000C6B194F87000012849D0012084F8700004
:101A20004FF00008C4F87C8021206067FEF76CFD51
:101A3000A4F850608146A4F85260A068B0F5805FB9
:101A400003D004E00120BDE8F883206928B12E46C8
:101A50005FF0000584F8708010E00026FAE780212E
:101A6000204600F091FFB8B9C6B116F8010B216805
:101A70000885B4F85200401EA4F85200B4F8520091
:101A80004B464FF0000200970028E8D14FF040018C
:101A9000204600F079FF30B10320D4E735F8020B7F
:101AA000C0F30800E3E7202060670020CBE70220B6
:101AB000C9E77047FEE700000148FEF781BD00005E
:101AC0002C0000200148FEF7AFBD00002C000020D4
:101AD000806A0021826B02B19163C26B02B1916393
:101AE00000F0ECBA10B50022CC074FF0280306D066
:101AF00090F84140422233EA040400D0F2228C07DD
:101B000007D590F8414042F04402A34301D042F08F
:101B1000B0020B0401D542F0B802102904D02029EC
:101B200005D0402906D007E042F0900204E042F0E0
:101B3000200201E042F04002006801689143016028
:101B400010BD01688A69D243920701D400228A62DB
:101B500000688169C943C90703D0816941F0010167
:101B6000816170472DE9F041044690F84100282139
:101B7000814320684FF000054FF0080304D0C36193
:101B800084F84050BDE8F0818169C1F30047816964
:101B9000FE2202EA11468168C1F30902C168D4F845
:101BA0000CE001F0FE014FF4004CBEF1020F17D122
:101BB0004FF0060E06F006060EEAD21E76450ED14E
:101BC000A16C491CA164A16C0229DBD1A564C3618D
:101BD00084F8405039462046FEF7F1FCD2E70E4625
:101BE00061462046FFF77EFF84F840503246F1E719
:101BF00070B5044690F84100002584F84250364AFA
:101C0000E2626585626C0A43626428281FD0292835
:101C10001DD02A281BD048F203012046FFF762FF9F
:101C200094F84100602802D0202084F841006563C8
:101C3000206B2A4EA16B19B1112812D0212810D087
:101C4000E16BE9B3122824D0222822D03EE0032100
:101C50002046FFF747FF282084F8410020486063B2
:101C6000E6E720680168490403D5016821F4804152
:101C70000160A06BFEF755FB012827D0A06B86639F
:101C800084F84050A06BFEF725FB002823D0A06B02
:101C900018E020680168090403D5016821F40041B7
:101CA0000160E06BFEF73DFB01280FD0E06B86631F
:101CB00084F84050E06BFEF70DFB00280BD000E0ED
:101CC00004E0E06B816BBDE8704008472046BDE84A
:101CD000704000F0F3B970BD0000FFFFD11A00089A
:101CE000711F000870B504461648E06200252563A0
:101CF000202084F8410084F84250C84365634007BF
:101D000011D42068406A616A0870606A401C606291
:101D1000208D40B1401E2085608D401E6085606C26
:101D200040F00400606448F203012046FFF7DAFE49
:101D300021681020C86184F840502046FEF76FFDEE
:101D400070BD00000000FFFF2DE9F041026804466D
:101D5000156890F841000E462027D761212806D04B
:101D6000292804D0222809D02A2807D00DE048F2DB
:101D700001012046FFF7B6FE212005E048F20201EE
:101D80002046FFF7AFFE222020632068416841F41F
:101D90000041416020684168354A11404160204659
:101DA000FFF7CFFEE843410406D42068016821F420
:101DB00080410160A06B07E0000409D4206801683D
:101DC00021F400410160E06B10B10068406860855B
:101DD000F04340070FD4206826F00406406A616A89
:101DE0000870606A401C6062208D20B1401E208512
:101DF000608D401E6085608D18B1606C40F00400FD
:101E00006064002584F842506563606C68B1616C61
:101E10002046FFF7EDFE94F84100282815D1314601
:101E20002046BDE8F041FFF75DBFE06A114EB042C9
:101E30000DD0204600F020F8E66284F8417025635A
:101E400084F840502046FEF7EAFCBDE8F08194F8A3
:101E5000410084F841702228256384F840502046D0
:101E600002D0FEF74CFEF0E7FEF748FEEDE700007B
:101E700000E800FE0000FFFF70B50446006801683E
:101E8000002584F84250C9434A0403D4016821F470
:101E9000804104E0090403D4016821F40041016099
:101EA00094F841102820292911D094F841102A29AA
:101EB0000CD184F841002220206302212046FFF744
:101EC00011FE84F840502046FEF718FE70BD84F8DD
:101ED00041002120206301212046FFF703FE84F802
:101EE00040502046FEF70BFE70BD00002DE9F0418A
:101EF0000446006890460E468069C043C00633D44D
:101F00000025202720688069C043800615D5701CF5
:101F1000F8D0FEF7F9FAA0EB0800B04201D8002E85
:101F2000F0D154F8440F40F0200044F804096770E1
:101F3000A57025700120BDE8F08121681020C861DE
:101F40002068C7612046FFF7FCFD54F8440B416848
:101F5000064A11404160206840F0040044F820091E
:101F60006777A5772577E5E70020E4E700E800FE3E
:101F70002DE9F041C56A044690F8400088460128E2
:101F800026D0012084F840006FEA0807B8066FEAFF
:101F9000020605D4B00603D441462046FFF7D4FE1E
:101FA0003A49F8064FF0807231D4F0062FD4638D91
:101FB000102083B12168C861606C40F00400606447
:101FC0000DB195425ED1616C2046FFF711FE59E0DC
:101FD0000220BDE8F08194F84120282A02D1B5F111
:101FE000007F04D094F84120292A05D00CE0414616
:101FF0002046FFF777FE45E08D4205D02168C86195
:102000002046FFF79EFD3AE02168C8613AE0780774
:1020100015D4700713D4608D60B12068406A626A7D
:102020001070606A401C6062208D401E2085608DAB
:10203000401E6085608D28BB8D4220D122E038078C
:1020400006D4300704D441462046FFF78BFD19E043
:10205000B80717D4B00715D4608D68B1606A2168DD
:1020600000788862606A401C6062608D401E6085F6
:10207000208D401E208505E0954200D015B92046F0
:10208000FFF7FAFE002084F84000A2E70000FFFFFF
:10209000F0B50568059C68684FF48066064FC1F38B
:1020A000090106EA545641EA02413E431943B0434E
:1020B000214308436860F0BDFF63FF0310B590F84B
:1020C00041200021602A05D0016380F84010FEF70E
:1020D000B3FA10BD202280F84120016380F840103F
:1020E000FEF76CFA10BD2DE9F0411D4617460E466D
:1020F0000446DDF8188008E0681C06D0FEF704FAF4
:10210000A0EB0800A8420BD855B12068806936EAD8
:10211000000012D00020B842EED00020BDE8F081CF
:1021200054F8440F40F0200044F804092020607067
:102130000020A07020700120F0E70120EBE70000F4
:102140002DE9F041002690460F460446202525E063
:10215000424639462046FFF7C9FE78BB20688069B1
:10216000C043800613D420688169C943490701D45C
:10217000218DC1B9C56154F8440B4168104A114022
:10218000416044F820696577A677267716E0FEF768
:10219000BBF9A0EB0800B84208D83FB120688069BD
:1021A000C0434007D4D40020BDE8F08154F8440F68
:1021B00040F0200044F80409657026700120F3E720
:1021C00000E800FE70B516460D4604460DE03246A6
:1021D00029462046FFF78AFE08B1012070BDFEF7B0
:1021E00093F9801BA84207D835B120688069C043A5
:1021F0008006ECD4002070BD54F8440F40F020005D
:1022000044F80409202060700020A0702070E4E7EA
:1022100070B516460D4604460FE032462946204664
:10222000FFF764FE08B1012070BD681C05D0FEF701
:102230006BF9801BA84207D835B120688069C0437C
:102240008007EAD4002070BD54F8440F40F020000D
:1022500044F80409202060700020A0702070E2E79C
:102260000E4810B50C49016040F614614160002130
:102270000122C0E90212016141618161C161016213
:10228000FEF7DCF900210548FEF744F9BDE81040EF
:1022900000210248FEF769B9005400402C000020DC
:1022A0000948084901604FF41651416000218160DE
:1022B0000C22C160C0E904128161C1610162416206
:1022C000FFF7B2BA003801407800002009480849F9
:1022D00001604FF416514160002181600C22C16001
:1022E000C0E904128161C16101624162FFF79CBAD9
:1022F00000440040F8000020FEE7704770470000EF
:102300002DE9F041444C05468846E06800268107E7
:1023100028680DD0E16801F00301814216D1A8B10F
:10232000E0686968C0F30210401C88420ED120E0CA
:10233000012804D0022805D0032807D108E021682D
:10234000890701E021684905002907DB01265FE0D4
:102350002168890302D421684903F5E7E1686A68C6
:102360006FF00F0321F0730103EB021211430143DD
:10237000E160206820F080602060FEF7C5F8074625
:1023800005E000BFFEF7C0F8C01B022837D8206860
:102390000001F7D4B8F1000F18D0B8F1010F1DD02B
:1023A000287D4FF07E41400801EB4060A96840EA7B
:1023B00001202169194A114008432061206840F03A
:1023C00080602060FEF7A0F807461AE0A868297B25
:1023D000000240EAC1602169114AECE7288A1149EC
:1023E000400801EB4050A96840EA012021690E4AEB
:1023F000E1E700BFFEF788F8C01B022801D90326D9
:1024000006E020680001F5D52069A969084320612C
:102410003046BDE8F081000000100240FF80FFF967
:10242000FF80FF070000E0FFFF809FFFF8B51C4D15
:1024300006460024A86DC00002D5FEF725FC0DE07D
:10244000A86D40F08050A865A86D00F08050009005
:10245000FEF71AFCA96D21F08051A965B0F5007F47
:1024600004D0802E07D94FF003040AE0802E08D94B
:10247000A02E01D804E001D1022402E0702E00D188
:1024800001240848016821F0070121430160006828
:1024900000F00700A04201D00120F8BD0020F8BDE7
:1024A00000100240002002407047FEF729BB10B523
:1024B000ACB0442115A8FDF7C0FE142126A8FDF7F5
:1024C000BCFE54216846FDF7B8FE1020159001208F
:1024D0000024CDE91B0460201D901F9415A8FEF771
:1024E00027FE0F20CDE9260428942994002126A850
:1024F0002A94FEF717FD43200090089409940B944A
:102500006846FEF7C9FB4FF40070FEF789FB2CB05C
:1025100010BD00000D48016841F4700101600C48D5
:10252000016841F001010160002181600268094BEE
:102530001A4002608214C260026822F480220260A3
:1025400081610249C00380390860704788ED00E06E
:1025500000100240FFFFF6EA90F82410C90706D0E9
:1025600001684A68836A22F400321A434A6090F88C
:102570002410890706D501684A68C36A22F48032AC
:102580001A434A6090F82410490706D501684A6842
:10259000036B22F480221A434A6090F82410090742
:1025A00006D501684A68436B22F400421A434A6028
:1025B00090F82410C90606D501688A68836B22F456
:1025C00080521A438A6090F82410890606D5016863
:1025D0008A68C36B22F400521A438A6090F8241070
:1025E000490611D501684A68036C22F480121A4327
:1025F0004A60016CB1F5801F06D101684A68436CDE
:1026000022F4C0021A434A6090F82410090606D545
:1026100001684A68806C22F4002202434A607047D5
:10262000F8B500260446C667FDF76EFF054620682C
:1026300000686FF07E47000708D52B4600224FF454
:1026400000112046009700F09FF960B920680068EB
:1026500040070AD52B4600224FF480012046009700
:1026600000F092F908B10320F8BD20206067A06750
:1026700084F870600020F8BD10B5806A0021A0F8D1
:102680005A10A0F85210FFF71EF810BD01680A6832
:1026900022F490720A6001688A6822F001028A605E
:1026A0002021816700210166704710B5B0F85C20D9
:1026B000836F0168222B04D0088B40F00800088348
:1026C00010BD898C436D11401980416D891C416595
:1026D000B0F85A10491EA0F85A10B0F85A10002944
:1026E000EED101680A6822F490720A6001688A6873
:1026F00022F001028A602021816700210166FFF734
:102700007BF910BD10B5B0F85C20836F0168222BF7
:1027100004D0088B40F00800088310BD898C11405C
:10272000426D1170416D491C4165B0F85A10491E47
:10273000A0F85A10B0F85A100029EED101680A68C2
:1027400022F490720A6001688A6822F001028A60AD
:102750002021816700210166FFF74EF910BD0000BE
:102760002DE9F041044600682369A268E5691A432F
:10277000636900272B431A437A4903687A4D2B403B
:102780001343036020684268E36822F440521A430E
:1027900042602268A0698A4201D0236A1843936884
:1027A00023F4306303439360704B226870489A426D
:1027B0000DD1D0F8880010F0030006D0012838D0E1
:1027C000022834D0032821D135E001251FE0694BD0
:1027D0009A420BD1D0F8880010F00C0025D00428C4
:1027E00027D0082823D00C2810D124E08A420DD10C
:1027F000D0F8880010F4406017D0B0F5806F18D082
:10280000B0F5006F13D0B0F5406F14D010255A4BBF
:1028100000264FF400408A4245D175B1022D0FD0F9
:10282000042D0FD0082D18D10FE00025EFE7022569
:10283000EDE70425EBE70825E9E7FEF703FC03E0F5
:10284000184602E0FEF722FCA8B3626802EB4201E0
:10285000814202D8B0EB023F01D901276FE0DFF8D7
:102860001C815DB1022D0CD0042D13D0082DF4D1A4
:1028700050082905401846F1000105E0FEF7E2FB8B
:102880000AE050083E49F5E70023FDF79BFCA0F560
:10289000407150E0FEF7FAFB6268010E0302500837
:1028A00018187141F0E7E1694FF6EF7881422FD1B6
:1028B000092DD2D200E042E0DFE805F0060920054C
:1028C000230505052600C8E7FEF7BCFB01E0FEF77F
:1028D000CBFB4100D4F8040001EB5001B1FBF0F058
:1028E00080B2A0F110014145B7D84FF6F071014018
:1028F000C0F3420001432068C16020E021496068C4
:10290000EAE7FEF7C3FBE4E74FF480316068E3E7F2
:10291000092DA2D2DFE805F0060918051E050505F8
:1029200020009AE7FEF78EFB16E0FEF79DFB13E012
:1029300080B2A0F1100141458FD82168C860266699
:1029400038466666BDE8F081606803EB5001B1FB74
:10295000F0F0EDE7FEF79AFB616800EB5100B0FB89
:10296000F1F0E5E700800040F369FFEF0038014037
:1029700000100240004400400024F400FFFC0F005F
:10298000000024F40048E8012DE9F0479A46174674
:102990000E4604464FF000094FF02008089D39E02C
:1029A000681C37D0FDF7B0FDA0EB0A00A84222D882
:1029B0000DB32068016849072CD5C069C0430005E4
:1029C00028D421684FF4006008622068016821F46F
:1029D000D07101602068816821F001018160C4F834
:1029E0007480C4F87880C4F87C8000BF84F870904C
:1029F0000320BDE8F0872068016821F4D0710160F0
:102A00002068816821F001018160C4F87480C4F8F5
:102A10007880EBE72068C06936EA000004D0002027
:102A2000B842BDD00020E4E70120F9E710B50B481B
:102A3000FEF74AFE01220A490848FEF787FF0848C8
:102A4000411E02782A2A06D0064BB1F902001A5418
:102A5000401C488010BD0120C86010BD78000020D7
:102A6000010000207801002010B50548FEF72CFE7B
:102A7000BDE81040012203490148FEF767BF00008E
:102A8000F800002000000020FEE70907090E0028DA
:102A900004DB00F1E02080F80014704700F00F0024
:102AA00000F1E02080F8141D704702E008C8121FF2
:102AB00008C1002AFAD170477047002001E001C127
:102AC000121F002AFBD17047F8B50A240123284AB7
:102AD000D02128480094FDF739FF254E0123721CB0
:102AE000D12124480094FDF79BFE7078000900F086
:102AF0009DF806F10C05A871707800F00F0000F049
:102B000095F8E8710123B21CD0211A480094FDF712
:102B10001DFFB61C0123721CD12116480094FDF73D
:102B20007FFE7078000900F081F8E870707800F09E
:102B30000F0000F07BF828710123B21CD0210D4852
:102B40000094FDF703FF0094B41C0123621CD12103
:102B50000848FDF765FE6078000900F067F8287006
:102B6000607800F00F0000F061F86870F8BD0000B8
:102B7000040000202C00002010B54FF4FA74234606
:102B80000A221CA11E48FEF739FF1D481D4980304E
:102B9000FDF75EFB48B923460A221BA11848FEF741
:102BA0002DFF08211B48FDF7A2FC164914481031DF
:102BB0008030FDF74DFB234680B111491022803152
:102BC0000F48FEF71BFF14490D4A0020343248809D
:102BD000D064106550659065C86010BD0E220FA1CD
:102BE0000748FEF70BFFFFF76FFF0A230A491A4653
:102BF0001031E5E748616E646C696E670A0D00008C
:102C0000F8000020982D0008546F67676C6C6564AD
:102C10000A0D00000004004800000020476574749D
:102C2000696E672054696D650A0D0000092801D896
:102C3000303000E03730C0B27047000086B0FDF79A
:102C400067FFFFF734FC14216846FDF7F6FA3848B1
:102C5000C16C41F00101C164C16C01F00101059139
:102C6000C16C41F00201C164C06C324D00F0020041
:102C70000590002208212846FDF740FC082000901E
:102C80000120019000200290039069462846FDF73C
:102C90005DFBFFF71BFBFFF703FBFFF7E1FA4FF0CC
:102CA000FF330A22D0212448FDF724FD50B9012426
:102CB00008212846FDF71BFC6420FDF735FB641C4A
:102CC0000A2CF5DD00F03CF81B4D4C3528680168F6
:102CD00041F0200101602868016841F04001016075
:102CE00005F180042068016841F02001016020683E
:102CF000016841F040010160104EF0680028FCD0EE
:102D00002868016821F0200101602068016821F035
:102D100020010160FFF730FF2868016841F02001C1
:102D200001602068016841F020010160E5E70000D2
:102D300000100240000400482C0000200000002089
:102D400038B5134900200A24087048700A46022347
:102D5000D02110480094FDF7F9FD0D480121801C99
:102D600002460170302141700223D02109480094AD
:102D7000FDF7ECFD06480221001D024601701121FD
:102D800041700223D02103480094FDF7DFFD38BDD8
:102D9000040000202C000020546F67676C654C65B0
:102DA000640000000000000047657454696D650010
:102DB0000000000000000000000000000000000013
:102DC0000102030406070809A0860100400D030064
:102DD000801A060000350C0040420F0080841E005F
:102DE00000093D0000127A000024F40000366E0154
:102DF0000048E801006CDC0200000000010203044E
:102E0000202E0008000000202C000000AA2A000844
:102E10004C2E00082C0000205C050000BA2A000897
:102E20004600FFFF0000000000000000000000005E
:102E300000003A00003A00000D0A000010000000F7
:0C2E4000010000000000000000093D003F
:040000050800018D61
:00000001FF
