:020000040800F2
:1000000028050020A1010008FF140008A114000821
:10001000FD140008D1020008891C0008000000003F
:10002000000000000000000000000000AD16000805
:10003000D30200080000000001150008AF160008F8
:10004000BB010008BB010008BB010008BB010008A0
:10005000BB010008BB010008BB010008BB01000890
:10006000BB010008BB010008BB010008BB01000880
:10007000BB010008BB010008BB010008BB01000870
:10008000BB010008BB010008BB010008BB01000860
:10009000BB010008BB010008BB010008BB01000850
:1000A000BB010008BB010008BB010008BB01000840
:1000B000BB0100080000000000000000BB010008B8
:1000C000BB0100080000000000000000BB010008A8
:1000D000000000002D1C0008691C00080000000042
:1000E000BB010008BB010008000000000000000088
:1000F0000000000000000000000000000000000000
:10010000000000000000000000000000BB0100082B
:100110000000000000000000BB010008BB01000857
:10012000BB010008BB010008BB010008BB010008BF
:10013000BB010008000000000000000000000000FB
:10014000BB010008BB010008BB010008BB0100089F
:10015000BB010008BB010008BB010008BB0100088F
:10016000BB010008BB010008BB0100080000000043
:10017000BB010008BB0100080000000000000000F7
:10018000BB010008BB010008BB010008DFF80CD070
:1001900000F08CF800480047491D000828050020A1
:1001A0000648804706480047FEE7FEE7FEE7FEE711
:1001B000FEE7FEE7FEE7FEE7FEE7FEE715170008AD
:1001C0008D0100082DE9F05F0546002092469B4610
:1001D00088460646814640241BE02846414647465D
:1001E000224600F052F853465A46C01A914110D3A5
:1001F00011461846224600F039F82D1A67EB01081F
:100200004F4622460120002100F030F817EB00098C
:100210004E41201EA4F10104DFDC484631462A4647
:10022000434600F000B830BCBDE8C09FD2B201E048
:1002300000F8012B491EFBD270470022F6E710B5EB
:1002400013460A4604461946FFF7F0FF204610BD44
:1002500010B5002200E0521C835C8C5CA34201D1EB
:10026000002BF8D1D8B2E1B2401A10BD202A04DB2D
:10027000203A00FA02F1002070479140C2F12003B9
:1002800020FA03F3194390407047202A04DB203AF8
:1002900021FA02F00021704721FA02F3D040C2F1A6
:1002A000200291400843194670470000064C074D54
:1002B00006E0E06840F0010394E807009847103436
:1002C000AC42F6D3FFF766FF741E0008941E0008C8
:1002D000FEE7704710B590F825100024022903D0DE
:1002E0000421C16301241AE001680A6822F00E02A9
:1002F0000A6001680A6822F001020A6090F844105E
:10030000036C01F01C02012101FA02F25A6080F82C
:100310002510002180F82410816B01B18847204608
:1003200010BD00002DE9FC4FDFF880A1002301255E
:100330000AF1040B03244FF00F0C0BF1040EAEE096
:1003400005FA03F632406FD04F68012F05D0022F17
:1003500003D0112F01D0122F17D1D0F808905F00D1
:1003600004FA07F829EA08090097D1F80C8008FA7E
:1003700007F848EA0908C0F808804768B7430E79CB
:10038000C6F300169E403E434660C6684FEA4308E7
:1003900004FA08F7BE4301978F6807FA08F7374356
:1003A000C7604E68022E01D0122E13D1DE0800EB7A
:1003B00086060096366A5F07FF0E0CFA07F926EAF2
:1003C0000906D1F8109009FA07F949EA0609009ED2
:1003D000C6F820900768019EB7430E7906F0030621
:1003E00006FA08F63E4306604E68F60056D5304ED3
:1003F000376E47F001073766366E23F0030706F0C5
:10040000010600962B4E3E44B146B6689F074FEA60
:1004100017780CFA08F7BE43B0F1904F05D0264F7D
:10042000B84204D1012708E038E0002705E0234F57
:10043000B84201D1022700E0072707FA08F737433F
:10044000C9F80870DAF800605746D1F8048096437E
:100450005FEAC83800D516433E60DBF800605F46AF
:10046000D1F8048096435FEA883800D516433E6091
:10047000DEF800607746D1F8048096435FEAC8282A
:1004800000D516433E60094F0C373E68D1F8048012
:1004900096435FEA882800D516433E605B1C0A68D5
:1004A00032FA03F67FF44CAF00F00AB800040140C2
:1004B000001002400000014000040048000800480D
:1004C0001CBCBDE8E08F42690A4201D081627047DE
:1004D000816170470AB18161704781627047000095
:1004E00001488068704700000800002002488168C9
:1004F00042681144816070470800002010B5002454
:10050000032000F071F8002000F008F808B1012481
:1005100001E000F025F8204610BD000070B50E4E39
:1005200005460024706898B14FF47A71B1FBF0F081
:100530000A490968B1FBF0F000F0A6FD40B9102DA2
:1005400006D200222946501E00F02EF8356000E049
:100550000124204670BD0000080000201400002087
:10056000094808B5016E41F001010166016E01F014
:1005700001010091816D41F080518165806D00F035
:100580008050009008BD000000100240002809DBE8
:1005900000F01F02012191404009800000F1E0209D
:1005A000C0F8001170470000F0B40E4B1B680C46F9
:1005B000C3F30223C3F10705042D00D90425191D37
:1005C000072901D2002300E0DB1E012606FA05F10F
:1005D000491E214099409E40761E16403143F0BC92
:1005E00001F053BB0CED00E0064900F0070208687B
:1005F0004FF6FF03184040EA0220034A1043086008
:10060000704700000CED00E00000FA051649B0F557
:10061000007F0868C0F3412009D0022805D008688F
:1006200020F4C06040F4806008600020704701281A
:10063000FBD0086820F4C06040F4007008600B48EC
:100640003222006850430A4AB0FBF2F0401C00E03E
:10065000401E4A69520501D50028F9D14869400574
:10066000E3D5032070470000007000401400002014
:1006700040420F000248006800F4C060704700006C
:10068000007000402DE9F84F0446002700889C4D7B
:100690003E46000515D5E06B60B1B0F5000F04D003
:1006A000B0F5400F2BD001270AE0E86840F4803015
:1006B000E86024E00021201D00F024FF07001ED088
:1006C0003E462068800338D5A86D4FF00008C00072
:1006D00009D4A86D40F08050A865A86D4FF00108BE
:1006E00000F080500090DFF81CA2DAF8001041F40E
:1006F0008071CAF80010FFF7F3FE814610E0D5F8CC
:100700008800E16B20F440000843C5F88800D8E772
:10071000FFF7E6FEA0EB0900022801D9032704E059
:10072000DAF80000C005F3D5EFB33E46B8F1000F8C
:1007300003D0A86D20F08050A8652078C00707D0AE
:10074000D5F88800216A20F003000843C5F8880026
:100750002078800707D5D5F88800616A20F00C0062
:100760000843C5F888002078800607D5D5F88800AA
:10077000A16A20F440600843C5F8880020888005FD
:1007800007D5D5F88800616B20F440200843C5F8F0
:1007900088002088400509D5D5F88800A16B20F491
:1007A0004010084300E02EE0C5F88800207840069D
:1007B00007D5D5F88800E16A20F440500843C5F811
:1007C00088002088C00507D5D5F88800216B20F463
:1007D00040300843C5F8880020884FF00067800447
:1007E0004FF080684ED5D5F88800216C20F040602D
:1007F0000843C5F88800206CB8423BD1E86840F453
:100800008010E8603EE0D5F8900010F4407014D0FD
:10081000216D814211D0D5F89000D5F8901020F4C8
:10082000407041F48031C5F89010D5F8901021F453
:100830008031C5F89010C5F89000C00711D0FFF7BF
:100840004FFE074641F2883907E000BFFFF748FE38
:10085000C11B494501D9032668E7D5F890008007F8
:10086000F4D5D5F89000216D20F440700843C5F808
:1008700090005BE7404505D10121201D00F042FEBC
:1008800000B106462068400317D5D5F88800616C92
:1008900020F040600843C5F88800606CB84204D17D
:1008A000E86840F48010E86007E0404505D1012188
:1008B000201D00F027FE00B106462088400411D517
:1008C000D5F88800A16C20F040500843C5F8880096
:1008D000A06CB0F1805F05D10221201D00F012FE56
:1008E00000B106462088000406D555F8880FE16C53
:1008F00020F0804008432860304600F005B8000032
:10090000001002400070004018BCBDE8E08F0000FD
:100910002DE9F0470F46050058D0404E306800F0F2
:100920000700B84209D2306820F007003843306031
:10093000306800F00700B84248D12878384CC0072A
:100940002CD06868032811D0022812D0216898B1F1
:10095000490500293ADAA16821F003010143A160A9
:10096000FFF7BEFD804641F2883910E02168890119
:10097000EFE721688903ECE78907EAE7FFF7B0FDB5
:10098000A0EB0801494502D90320BDE8F087A06823
:10099000696800F00C00B0EB810FEFD12878800778
:1009A00005D5A068A96820F0F0000843A060306871
:1009B00000F00700B8420BD9306820F00700384338
:1009C0003060306800F00700B84201D00120DCE759
:1009D0002878400705D5A068E96820F4E06008435E
:1009E000A0602878000706D5A068296920F4605027
:1009F00040EAC100A06000F03FF8A168094AC1F3D5
:100A00000311515C01F01F01C84007490860074805
:100A10000068BDE8F047FFF781BD000000200240FC
:100A2000001002402C1E00081400002008000020C6
:100A30000548064900688968054AC1F30221515CEE
:100A400001F01F01C8407047140000200010024050
:100A50006C1E00080548064900688968054AC1F30C
:100A6000C221515C01F01F01C840704714000020F2
:100A7000001002406C1E000870B52549002318467E
:100A80008A68CC6812F00C0204F00306214C4FEA8D
:100A9000640509D00C2A05D0042A32D0082A00D1D6
:100AA000284670BD012E10D10B681B0704D4D1F865
:100AB0009430C3F3032302E00B68C3F30313164E11
:100AC00056F82330DAB10C2AEBD1C86800F00300E5
:100AD000022818D0032818D01846CA68CB68C2F379
:100AE0000212C3F306234343521CB3FBF2F2C8685D
:100AF000C0F34160401C4000B2FBF0F070BD1846EE
:100B000070BD204670BD2046E7E72846E5E70000B7
:100B1000001002400024F4003C1E00082DE9F843B8
:100B200004006FD0FE4DA86800F00C06E86800F0E5
:100B300003072078C00664D576B10C2E01D1012FB1
:100B40000AD0A069002828687AD040F00100286007
:100B5000FFF7C6FC80465DE02868800702D5A069E3
:100B60000028DED0216A2868000703D5286800F035
:100B7000F00004E0D5F89400F02202EA101081425F
:100B800016D9084600F054FD00283BD1286840F0F3
:100B9000080028602868216A20F0F00008432860D7
:100BA0006868E16920F47F4040EA0120686016E04F
:100BB000286840F0080028602868216A20F0F000CA
:100BC000084328606868E16920F47F4040EA01201A
:100BD000686026B9206A00F02BFD0028D5D1FFF708
:100BE0004BFFA968CF4AC1F30311515C01F01F010B
:100BF000C840CD490860CD480068FFF78FFC002849
:100C00007ED12EE0CAE000BFFFF76AFCA0EB08002F
:100C1000022876D828688007F6D5286840F00800B2
:100C200028602868216A20F0F0000843286068687E
:100C3000E16920F47F4040EA0120686011E0FFE7AD
:100C400020F001002860FFF74BFC804606E000BF63
:100C5000FFF746FCA0EB08000228DAD828688007D6
:100C6000F6D42078C00740D0082E18D00C2E01D121
:100C7000032F14D06068B0F5803F17D0B0F5A02FD7
:100C8000286817D020F480302860286820F480205D
:100C900028606068E0B1FFF723FC804614E0286814
:100CA000800322D56068002878D01EE0286840F4D0
:100CB0008030EDE740F480202860F7E7FFF710FC74
:100CC000A0EB08006428A4D828688003F6D50CE0BF
:100CD000FFF706FC804605E0FFF702FCA0EB0800EA
:100CE000642896D828688003F6D4207880073BD5FE
:100CF000042E11D00C2E01D1022F0DD0E06801E09E
:100D0000B6E1FFE0002828681ED040F4807028601B
:100D1000FFF7E6FB07460CE0286840050CD5E068C5
:100D20000028C1D008E000BFFFF7DAFBC01B022893
:100D300093D828684005F7D56868217C20F0F850E2
:100D400040EA016068600FE020F480702860FFF7DF
:100D5000C7FB074605E000BFFFF7C2FBC01B022828
:100D6000B1D828684005F7D42078000729D56069F4
:100D70000028D5F8940012D040F00100C5F8940086
:100D8000FFF7AEFB074604E0FFF7AAFBC01B0228F3
:100D900099D8D5F894008007F6D512E02BE120F021
:100DA0000100C5F89400FFF79BFB074605E000BF74
:100DB000FFF796FBC01B022885D8D5F89400800762
:100DC000F6D42078400766D5A86D0027C00008D467
:100DD000A86D40F08050A865A86D012700F08050F4
:100DE000009053480168C90512D40168814641F456
:100DF00080710160FFF774FB804605E0FFF770FB30
:100E0000A0EB080002287DD8D9F80000C005F5D570
:100E1000A068012816D00528D5F8900017D020F03A
:100E20000100C5F89000D5F8900020F0040000BF44
:100E3000C5F89000A06841F28839C0B1FFF750FBB7
:100E400080460FE0D5F8900040F00100F0E740F058
:100E50000400C5F89000F5E7FFF742FBA0EB08019E
:100E600049454FD8D5F890008007F5D50EE0FFF73B
:100E700037FB804606E000BFFFF732FBA0EB08011E
:100E800049453FD8D5F890008007F5D41FB1A86D2B
:100E900020F08050A8652078800628D5606A002858
:100EA000D5F8980012D040F00100C5F89800FFF77F
:100EB00017FB074605E000BFFFF712FBC01B022827
:100EC00020D8D5F898008007F6D510E020F0010072
:100ED000C5F89800FFF704FB074604E0FFF700FBA6
:100EE000C01B02280ED8D5F898008007F6D4A06A57
:100EF000A8B1022824D00C2E7DD0286820F0807064
:100F0000286000E0B3E02868000103D4E86820F01E
:100F10000300E860E86807490840E8600CE09FE0EB
:100F2000001002402C1E00081400002008000020C1
:100F300000700040FFFFEEFEFFF7D2FA044699E092
:100F4000E868E26A00F00301914226D1216B00F0CB
:100F500070020901103991421FD1626B00F4FE4109
:100F6000B1EB022F19D194F8382000F07841B1EBA1
:100F7000C26F12D1A18F00F4C00249084905A1F542
:100F80000011914209D194F8401000F0C060490866
:100F90004906A1F1007181424BD00C2E6FD0286818
:100FA00040016CD4286820F080702860FFF798FA20
:100FB000064604E0FFF794FA801B022857D82868F9
:100FC0008001F7D4F4E90B016FF00F0202EB01117D
:100FD0000843218A5204490802EB4151A26841EAC0
:100FE00002210843217D4FF07E42490802EB416116
:100FF0000843217B00E042E040EAC160E968214A01
:1010000011400843E860286840F080702860E86874
:1010100040F08070E860FFF763FA044605E000BF27
:10102000FFF75EFA001B022821D828688001F7D557
:1010300023E02868800120D4286840F08070286070
:10104000E86840F08070E860FFF74AFA044604E080
:10105000FFF746FA001B022809D828688001F7D557
:101060000BE000BFFFF73CFA001B022802D9032067
:10107000BDE8F88328688001F4D40020F8E7012057
:10108000F6E700008C809D0110B5401EB0F1807F16
:1010900001D3012010BD4FF0E02460610F216017E3
:1010A00000F0F3FD0020A06107202061002010BDAA
:1010B000704770472DE9F04102680446D069116815
:1010C000936840F60F0528424FF0000505D18606CB
:1010D0007BD58E0679D5216E88E003F0010601F4F8
:1010E0009077374371D0C70707D0CF0505D50127C3
:1010F0001762E26F42F00102E267820708D5DA0761
:1011000006D0276802223A62E26F42F00402E267E8
:10111000420708D5DA0706D0236804221A62E26F74
:1011200042F00202E26702070AD501F020023243D0
:1011300006D0236808221A62E26F42F00802E267D2
:10114000020509D54A0107D523684FF400621A62E7
:10115000E26F42F02002E267E26F002A2ED08006A2
:1011600005D5880603D5216E09B120468847E06F72
:1011700021688968490602D410F0280F20D0204643
:1011800000F084FB20688168490614D5816821F04D
:1011900040018160E06E70B11D498163E06EFFF730
:1011A00099F800280AD0E06E816B00E02046BDE887
:1011B000F041084709E02046FFF77BFFBDE8F081DA
:1011C0002046FFF776FFE567F8E7C60209D55B0220
:1011D00007D54FF4801010622046BDE8F041FFF7BC
:1011E00067BF030605D50B0603D5616E0029DDD167
:1011F000E4E74006E2D54806E0D51168204621F034
:101200004001116020216167656600F048F9D5E76B
:101210007918000810B5040002D0606F10B107E023
:10122000012010BD002084F87000204600F026F850
:10123000242060672068016821F0010101602046D8
:1012400000F08EFB0128ECD0606A10B1204600F05F
:1012500083FA2068416821F49041416020688168E8
:1012600021F02A0181602068016841F001010160DC
:101270002046BDE8104000F0D3BA0000F0B587B0BA
:10128000044614216846FEF7D8FF284F266800223E
:1012900027490223032407254FF09040BE421FD167
:1012A0000E6E46F480460E660E6E06F48046059677
:1012B000CE6C46F00106CE64C96C02AE01F00101AD
:1012C00005916102CDE9001386E834006946FFF715
:1012D00029F8002211462520FFF766F9252021E094
:1012E000144FBE4220D18E6D46F400368E658E6D51
:1012F00006F400360596CE6C46F00106CE64C96C45
:1013000002AE01F0010105910C21CDE9001386E840
:1013100034006946FFF706F8002211462620FFF741
:1013200043F92620FFF732F907B0F0BD003801403D
:10133000001002400044004030B5836F202B4BD199
:10134000B1B1AAB190F87030012B45D0012380F8DB
:1013500070304165A0F85820A0F85A20002101669D
:101360001D038268FF23AA4207D1026912B125E05A
:10137000012030BD40F2FF1226E07F24E2B1B2F13D
:10138000805F1ED0A0F85C10C167222282670268CD
:10139000936843F0010393608268AA4201D1026915
:1013A000C2B10E4A026680F870100068016841F40C
:1013B00090710160002030BD026942B9A0F85C3034
:1013C000E2E702691AB13F22A0F85C20DCE7A0F84E
:1013D0005C40D9E7024AE5E7022030BD0519000864
:1013E000AB180008704700002DE9F8430446406F31
:1013F0001F4616460D4620284FD1CDB1C6B194F8F0
:101400007000012849D0012084F870004FF00008D6
:10141000C4F87C8021206067FFF762F8A4F8506070
:101420008146A4F85260A068B0F5805F03D004E064
:101430000120BDE8F883206928B12E465FF0000541
:1014400084F8708010E00026FAE78021204600F042
:101450009BFBB8B9C6B116F8010B21680885B4F832
:101460005200401EA4F85200B4F852004B464FF010
:10147000000200970028E8D14FF04001204600F01C
:1014800083FB30B10320D4E735F8020BC0F308002A
:10149000E3E7202060670020CBE70220C9E7704720
:1014A000FEE700000948084901604FF41651416009
:1014B000002181600C22C160C0E904128161C16118
:1014C00001624162FFF7A6BE00380140180000200B
:1014D0000948084901604FF41651416000218160BC
:1014E0000C22C160C0E904128161C16101624162E4
:1014F000FFF790BE0044004098000020FEE77047D0
:10150000704700002DE9F041444C05468846E068EC
:101510000026810728680DD0E16801F003018142AF
:1015200016D1A8B1E0686968C0F30210401C884277
:101530000ED120E0012804D0022805D0032807D1CD
:1015400008E02168890701E021684905002907DBD7
:1015500001265FE02168890302D421684903F5E789
:10156000E1686A686FF00F0321F0730103EB021268
:1015700011430143E160206820F080602060FEF7A5
:10158000AFFF074605E000BFFEF7AAFFC01B022819
:1015900037D820680001F7D4B8F1000F18D0B8F19F
:1015A000010F1DD0287D4FF07E41400801EB4060C7
:1015B000A96840EA01202169194A114008432061C5
:1015C000206840F080602060FEF78AFF07461AE03E
:1015D000A868297B000240EAC1602169114AECE752
:1015E000288A1149400801EB4050A96840EA0120CF
:1015F00021690E4AE1E700BFFEF772FFC01B022817
:1016000001D9032606E020680001F5D52069A96903
:10161000084320613046BDE8F08100000010024020
:10162000FF80FFF9FF80FF070000E0FFFF809FFFC2
:10163000F8B51C4D06460024A86DC00002D5FFF782
:1016400019F80DE0A86D40F08050A865A86D00F075
:1016500080500090FFF70EF8A96D21F08051A96528
:10166000B0F5007F04D0802E07D94FF003040AE0C4
:10167000802E08D9A02E01D804E001D1022402E076
:10168000702E00D101240848016821F00701214390
:101690000160006800F00700A04201D00120F8BD01
:1016A0000020F8BD00100240002002407047FEF705
:1016B0001DBF10B5ACB0442115A8FEF7BEFD142126
:1016C00026A8FEF7BAFD54216846FEF7B6FD1020A5
:1016D000159001200024CDE91B0460201D901F946B
:1016E00015A8FFF71BFA0F20CDE9260428942994AA
:1016F000002126A82A94FFF70BF9032000900894F4
:1017000009946846FEF7BEFF4FF40070FEF77EFFB7
:101710002CB010BD0D48016841F4700101600C4807
:10172000016841F001010160002181600268094BFC
:101730001A4002608214C260026822F480220260B1
:1017400081610249C00380390860704788ED00E07C
:1017500000100240FFFFF6EA90F82410C90706D0F7
:1017600001684A68836A22F400321A434A6090F89A
:101770002410890706D501684A68C36A22F48032BA
:101780001A434A6090F82410490706D501684A6850
:10179000036B22F480221A434A6090F82410090750
:1017A00006D501684A68436B22F400421A434A6036
:1017B00090F82410C90606D501688A68836B22F464
:1017C00080521A438A6090F82410890606D5016871
:1017D0008A68C36B22F400521A438A6090F824107E
:1017E000490611D501684A68036C22F480121A4335
:1017F0004A60016CB1F5801F06D101684A68436CEC
:1018000022F4C0021A434A6090F82410090606D553
:1018100001684A68806C22F4002202434A607047E3
:10182000F8B500260446C667FEF75AFE054620684E
:1018300000686FF07E47000708D52B4600224FF462
:1018400000112046009700F09FF960B920680068F9
:1018500040070AD52B4600224FF48001204600970E
:1018600000F092F908B10320F8BD20206067A0675E
:1018700084F870600020F8BD10B5806A0021A0F8DF
:101880005A10A0F85210FFF714FC10BD01680A6846
:1018900022F490720A6001688A6822F001028A606C
:1018A0002021816700210166704710B5B0F85C20E7
:1018B000836F0168222B04D0088B40F00800088356
:1018C00010BD898C436D11401980416D891C4165A3
:1018D000B0F85A10491EA0F85A10B0F85A10002952
:1018E000EED101680A6822F490720A6001688A6881
:1018F00022F001028A602021816700210166FFF742
:1019000071FD10BD10B5B0F85C20836F0168222B0B
:1019100004D0088B40F00800088310BD898C11406A
:10192000426D1170416D491C4165B0F85A10491E55
:10193000A0F85A10B0F85A100029EED101680A68D0
:1019400022F490720A6001688A6822F001028A60BB
:101950002021816700210166FFF744FD10BD0000D2
:101960002DE9F041044600682369A268E5691A433D
:10197000636900272B431A437A4903687A4D2B4049
:101980001343036020684268E36822F440521A431C
:1019900042602268A0698A4201D0236A1843936892
:1019A00023F4306303439360704B226870489A427B
:1019B0000DD1D0F8880010F0030006D0012838D0EF
:1019C000022834D0032821D135E001251FE0694BDE
:1019D0009A420BD1D0F8880010F00C0025D00428D2
:1019E00027D0082823D00C2810D124E08A420DD11A
:1019F000D0F8880010F4406017D0B0F5806F18D090
:101A0000B0F5006F13D0B0F5406F14D010255A4BCD
:101A100000264FF400408A4245D175B1022D0FD007
:101A2000042D0FD0082D18D10FE00025EFE7022577
:101A3000EDE70425EBE70825E9E7FEF7F9FF03E00A
:101A4000184602E0FFF718F8A8B3626802EB4201FB
:101A5000814202D8B0EB023F01D901276FE0DFF8E5
:101A60001C815DB1022D0CD0042D13D0082DF4D1B2
:101A700050082905401846F1000105E0FEF7D8FF9F
:101A80000AE050083E49F5E70023FEF79BFBA0F56E
:101A9000407150E0FEF7F0FF6268010E030250084B
:101AA00018187141F0E7E1694FF6EF7881422FD1C4
:101AB000092DD2D200E042E0DFE805F0060920055A
:101AC000230505052600C8E7FEF7B2FF01E0FEF793
:101AD000C1FF4100D4F8040001EB5001B1FBF0F06C
:101AE00080B2A0F110014145B7D84FF6F071014026
:101AF000C0F3420001432068C16020E021496068D2
:101B0000EAE7FEF7B9FFE4E74FF480316068E3E706
:101B1000092DA2D2DFE805F0060918051E05050506
:101B200020009AE7FEF784FF16E0FEF793FF13E02C
:101B300080B2A0F1100141458FD82168C8602666A7
:101B400038466666BDE8F081606803EB5001B1FB82
:101B5000F0F0EDE7FEF790FF616800EB5100B0FB9D
:101B6000F1F0E5E700800040F369FFEF0038014045
:101B700000100240004400400024F400FFFC0F006D
:101B8000000024F40048E8012DE9F0479A46174682
:101B90000E4604464FF000094FF02008089D39E03A
:101BA000681C37D0FEF79CFCA0EB0A00A84222D8A4
:101BB0000DB32068016849072CD5C069C0430005F2
:101BC00028D421684FF4006008622068016821F47D
:101BD000D07101602068816821F001018160C4F842
:101BE0007480C4F87880C4F87C8000BF84F870905A
:101BF0000320BDE8F0872068016821F4D0710160FE
:101C00002068816821F001018160C4F87480C4F803
:101C10007880EBE72068C06936EA000004D0002035
:101C2000B842BDD00020E4E70120F9E710B50B4829
:101C3000FFF740FA01220A490848FFF77DFB0848F0
:101C4000411E02782A2A06D0064BB1F902001A5426
:101C5000401C488010BD0120486010BD18000020C5
:101C6000010000201801002010B50548FFF722FAF6
:101C7000BDE81040012203490148FFF75DBB0000A9
:101C80009800002000000020FEE70907090E002848
:101C900004DB00F1E02080F80014704700F00F0032
:101CA00000F1E02080F8141D704702E008C8121F00
:101CB00008C1002AFAD170477047002001E001C135
:101CC000121F002AFBD1704710B54FF4FA74234657
:101CD0000A2213A11548FFF787FB144814498030E6
:101CE000FEF7B6FA48B92346082212A10F48FFF7BB
:101CF0007BFB08211248FEF7E6FB0C492346102225
:101D000080310A48FFF770FB0E49084A00208032F4
:101D10004880106050609060D060486010BD000046
:101D200048616E646C696E670A0D000098000020BF
:101D30001C1E0008546F67676C696E670000000026
:101D4000000400480000002086B0FEF7D7FBFFF734
:101D5000B0FC14216846FEF770FA2C48C16C41F0C3
:101D60000101C164C16C01F001010591C16C41F038
:101D70000201C164C06C264C00F0020005900022F4
:101D800008212046FEF7A6FB082000900120002134
:101D9000CDE90101039169462046FEF7C3FAFFF73A
:101DA00097FBFFF77FFB1B4C2068016841F0200187
:101DB00001602068016841F04001016004F1800584
:101DC0002868016841F0200101602868016841F03D
:101DD00040010160104E70680028FCD02068016846
:101DE00021F0200101602868016821F020010160D4
:101DF000FFF76AFF2068016841F020010160286850
:101E0000016841F020010160E5E700000010024098
:101E1000000400481800002000000020546F67678D
:101E20006C654C65640000000000000000000000CC
:101E3000000000000102030406070809A086010053
:101E4000400D0300801A060000350C0040420F00D0
:101E500080841E0000093D0000127A000024F40076
:101E600000366E010048E801006CDC020000000052
:101E700001020304941E0008000000201800000066
:101E8000AA1C0008AC1E0008180000201005000065
:101E9000BA1C00084600FFFF000000001000000010
:0C1EA000010000000000000000093D00EF
:040000050800018D61
:00000001FF
