:020000040800F2
:10000000D8090020810200082917000825170008D8
:100010002717000895030008691E0008000000006B
:10002000000000000000000000000000A101000826
:100030009703000800000000FD010008D518000823
:100040009B0200089B0200089B0200089B0200081C
:100050009B0200089B0200089B0200089B0200080C
:100060009B0200089B0200089B0200089B020008FC
:100070009B0200089B0200089B0200089B020008EC
:100080009B0200089B0200089B0200089B020008DC
:100090009B0200089B0200089B0200089B020008CC
:1000A0009B020008991900089B0200089B020008A7
:1000B0009B02000800000000000000009B020008F6
:1000C0009B02000800000000000000009B020008E6
:1000D00000000000311E00089B0200080000000024
:1000E0009B0200089B0200080000000000000000C6
:1000F0000000000000000000000000000000000000
:100100000000000000000000000000009B0200084A
:1001100000000000000000009B0200089B02000895
:100120009B0200089B0200089B0200089B0200083B
:100130009B0200080000000000000000000000001A
:100140009B0200089B0200089B0200089B0200081B
:100150009B0200089B0200089B0200089B0200080B
:100160009B0200089B0200089B02000800000000A0
:100170009B0200089B020008000000000000000035
:100180009B0200089B0200089B020008DFF80CD0CD
:1001900000F0EEF800480047A91E0008D80900202A
:1001A0002C4B1968086800F05AB880F30988BFF32F
:1001B0006F8F4FF0000080F311887047000000003F
:1001C00008480068006880F308884FF0000080F35A
:1001D000148862B661B6BFF34F8FBFF36F8F00DF35
:1001E00000BF00BF08ED00E0DFF80C00016841F43B
:1001F00070010160704700BF88ED00E0EFF30980F7
:10020000BFF36F8F134B1A681EF0100F08BF20ED5D
:10021000108A20E9F04F106009B44FF0500080F3CD
:100220001188BFF34F8FBFF36F8F01F0B9FE4FF00E
:10023000000080F3118809BC1968086800F014B840
:100240001EF0100F08BF00F014B880F30988BFF348
:100250006F8F704714000020EFF30580704730C89F
:10026000B0E8C04FFFF7A1BF30C8B0E8C04FFFF7FC
:10027000E7BFB0EC088AB0EC08CAFFF7E6BF0000A1
:100280000648804706480047FEE7FEE7FEE7FEE730
:10029000FEE7FEE7FEE7FEE7FEE7FEE7551900088A
:1002A0008D0100082DE9F05F0546002092469B462F
:1002B00088460646814640241BE02846414647467C
:1002C000224600F044F853465A46C01A914110D3D2
:1002D00011461846224600F02BF82D1A67EB01084C
:1002E0004F4622460120002100F022F817EB0009BA
:1002F0004E41201EA4F10104DFDC484631462A4667
:10030000434600F000B830BCBDE8C09FD2B201E067
:1003100000F8012B491EFBD270470022F6E710B50A
:1003200013460A4604461946FFF7F0FF204610BD63
:10033000202A04DB203A00FA02F1002070479140A5
:10034000C2F1200320FA03F3194390407047202A9A
:1003500004DB203A21FA02F00021704721FA02F36F
:10036000D040C2F120029140084319467047000076
:10037000064C074D06E0E06840F0010394E80700F2
:1003800098471034AC42F6D3FFF704FF142100085D
:1003900034210008FEE7704710B590F825100024BE
:1003A000022903D00421C16301241AE001680A680C
:1003B00022F00E020A6001680A6822F001020A6057
:1003C00090F84410036C01F01C02012101FA02F2C2
:1003D0005A6080F82510002180F82410816B01B14B
:1003E0008847204610BD00002DE9FC4FDFF880A1B2
:1003F000002301250AF1040B03244FF00F0C0BF12D
:10040000040EAEE005FA03F632406FD04F68012FBC
:1004100005D0022F03D0112F01D0122F17D1D0F801
:1004200008905F0004FA07F829EA08090097D1F854
:100430000C8008FA07F848EA0908C0F808804768FD
:10044000B7430E79C6F300169E403E434660C66829
:100450004FEA430804FA08F7BE4301978F6807FA8A
:1004600008F73743C7604E68022E01D0122E13D111
:10047000DE0800EB86060096366A5F07FF0E0CFA70
:1004800007F926EA0906D1F8109009FA07F949EAAE
:100490000609009EC6F820900768019EB7430E79B2
:1004A00006F0030606FA08F63E4306604E68F600BC
:1004B00056D5304E376E47F001073766366E23F05B
:1004C000030706F0010600962B4E3E44B146B6687F
:1004D0009F074FEA17780CFA08F7BE43B0F1904F28
:1004E00005D0264FB84204D1012708E038E00027A4
:1004F00005E0234FB84201D1022700E0072707FAA1
:1005000008F73743C9F80870DAF800605746D1F8A1
:10051000048096435FEAC83800D516433E60DBF896
:1005200000605F46D1F8048096435FEA883800D5C2
:1005300016433E60DEF800607746D1F804809643AB
:100540005FEAC82800D516433E60094F0C373E6865
:10055000D1F8048096435FEA882800D516433E60B0
:100560005B1C0A6832FA03F67FF44CAF00F00AB85D
:100570000004014000100240000001400004004857
:10058000000800481CBCBDE8E08F0AB181617047DB
:1005900081627047014880687047000004000020B5
:1005A00010B50024032000F08DF8002000F008F8BA
:1005B00008B1012401E000F03DF8204610BD000024
:1005C00000B5014687B00022192000F05BF8192021
:1005D00000F04AF81348016E41F400610166006EB4
:1005E00005A900F400600690684600F05BFA00F090
:1005F0008BFA0D490D4AB0FBF1F10D48491E02601E
:10060000416040F2E7320021C0E90321816000F03F
:1006100098FD10B1012007B000BD054800F0AEFD07
:10062000F9E700000010024040420F00002C01409A
:10063000D00000200B4882B0016E41F0010101663C
:10064000016E01F001010091816D41F080518165E1
:10065000806D002200F0805000900F21901E02B0AB
:1006600000F010B800100240002809DB00F01F0263
:10067000012191404009800000F1E020C0F8001104
:1006800070470000F0B40E4B1B680C46C3F3022306
:10069000C3F10705042D00D90425191D072901D22E
:1006A000002300E0DB1E012606FA05F1491E214069
:1006B00099409E40761E16403143F0BC01F0D5BBF8
:1006C0000CED00E0064900F0070208684FF6FF0352
:1006D000184040EA0220034A1043086070470000B7
:1006E0000CED00E00000FA050248006800F4C0606C
:1006F00070470000007000402DE9F84F04460027C5
:1007000000889C4D3E46000515D5E06B60B1B0F504
:10071000000F04D0B0F5400F2BD001270AE0E868A5
:1007200040F48030E86024E00021201D00F0FEFF4E
:1007300007001ED03E462068800338D5A86D4FF0D4
:100740000008C00009D4A86D40F08050A865A86DCD
:100750004FF0010800F080500090DFF81CA2DAF89A
:10076000001041F48071CAF80010FFF713FF8146B2
:1007700010E0D5F88800E16B20F440000843C5F88C
:100780008800D8E7FFF706FFA0EB0900022801D98F
:10079000032704E0DAF80000C005F3D5EFB33E46C6
:1007A000B8F1000F03D0A86D20F08050A865207824
:1007B000C00707D0D5F88800216A20F0030008435D
:1007C000C5F888002078800707D5D5F88800616AC9
:1007D00020F00C000843C5F888002078800607D573
:1007E000D5F88800A16A20F440600843C5F8880065
:1007F0002088800507D5D5F88800616B20F440205B
:100800000843C5F888002088400509D5D5F8880038
:10081000A16B20F44010084300E02EE0C5F88800EA
:100820002078400607D5D5F88800E16A20F44050CA
:100830000843C5F888002088C00507D5D5F888008A
:10084000216B20F440300843C5F8880020884FF021
:10085000006780044FF080684ED5D5F88800216C81
:1008600020F040600843C5F88800206CB8423BD1B6
:10087000E86840F48010E8603EE0D5F8900010F49D
:10088000407014D0216D814211D0D5F89000D5F878
:10089000901020F4407041F48031C5F89010D5F8E4
:1008A000901021F48031C5F89010C5F89000C00771
:1008B00011D0FFF76FFE074641F2883907E000BF0D
:1008C000FFF768FEC11B494501D9032668E7D5F843
:1008D00090008007F4D5D5F89000216D20F4407089
:1008E0000843C5F890005BE7404505D10121201D74
:1008F00000F01CFF00B106462068400317D5D5F86C
:100900008800616C20F040600843C5F88800606C86
:10091000B84204D1E86840F48010E86007E0404540
:1009200005D10121201D00F001FF00B106462088FD
:10093000400411D5D5F88800A16C20F04050084340
:10094000C5F88800A06CB0F1805F05D10221201DA0
:1009500000F0ECFE00B106462088000406D555F8EC
:10096000880FE16C20F0804008432860304600F09A
:1009700005B80000001002400070004018BCBDE83F
:10098000E08F00002DE9F0470F46050058D0404E9B
:10099000306800F00700B84209D2306820F0070044
:1009A00038433060306800F00700B84248D12878FA
:1009B000384CC0072CD06868032811D0022812D008
:1009C000216898B1490500293ADAA16821F00301AC
:1009D0000143A160FFF7DEFD804641F2883910E057
:1009E00021688901EFE721688903ECE78907EAE7D5
:1009F000FFF7D0FDA0EB0801494502D90320BDE86F
:100A0000F087A068696800F00C00B0EB810FEFD1AF
:100A10002878800705D5A068A96820F0F000084371
:100A2000A060306800F00700B8420BD9306820F0B1
:100A3000070038433060306800F00700B84201D04A
:100A40000120DCE72878400705D5A068E96820F494
:100A5000E0600843A0602878000706D5A0682969EF
:100A600020F4605040EAC100A06000F05FF8A16887
:100A7000094AC1F30311515C01F01F01C840074945
:100A8000086007480068BDE8F047FFF799BD00001F
:100A90000020024000100240CC200008100000207E
:100AA000040000200F2202600C4A936803F0030345
:100AB0004360936803F0F0038360936803F4E0639A
:100AC000C36092684FF4E06303EAD2020261044813
:100AD000006800F007000860704700000010024046
:100AE000002002400548064900688968054AC1F3AC
:100AF0000221515C01F01F01C84070471000002026
:100B0000001002400C210008054806490068896869
:100B1000054AC1F3C221515C01F01F01C840704772
:100B200010000020001002400C21000870B525497B
:100B3000002318468A68CC6812F00C0204F0030601
:100B4000214C4FEA640509D00C2A05D0042A32D082
:100B5000082A00D1284670BD012E10D10B681B0752
:100B600004D4D1F89430C3F3032302E00B68C3F339
:100B70000313164E56F82330DAB10C2AEBD1C868AD
:100B800000F00300022818D0032818D01846CA68BD
:100B9000CB68C2F30212C3F306234343521CB3FBD8
:100BA000F2F2C868C0F34160401C4000B2FBF0F0B4
:100BB00070BD184670BD204670BD2046E7E7284648
:100BC000E5E70000001002400024F400DC200008EB
:100BD0002DE9F84304006FD0FE4DA86800F00C0624
:100BE000E86800F003072078C00664D576B10C2EC3
:100BF00001D1012F0AD0A069002828687AD040F0DE
:100C000001002860FFF7C6FC80465DE02868800789
:100C100002D5A0690028DED0216A2868000703D524
:100C2000286800F0F00004E0D5F89400F02202EA11
:100C30001010814216D9084600F00EFE00283BD164
:100C4000286840F0080028602868216A20F0F00039
:100C5000084328606868E16920F47F4040EA012089
:100C6000686016E0286840F0080028602868216A5B
:100C700020F0F000084328606868E16920F47F40B4
:100C800040EA0120686026B9206A00F0E5FD0028EE
:100C9000D5D1FFF74BFFA968CF4AC1F30311515CCF
:100CA00001F01F01C840CD490860CD480068FFF73A
:100CB00087FC00287ED12EE0CAE000BFFFF76AFC67
:100CC000A0EB0800022876D828688007F6D52868A7
:100CD00040F0080028602868216A20F0F0000843EE
:100CE00028606868E16920F47F4040EA012068607C
:100CF00011E0FFE720F001002860FFF74BFC804681
:100D000006E000BFFFF746FCA0EB08000228DAD897
:100D100028688007F6D42078C00740D0082E18D065
:100D20000C2E01D1032F14D06068B0F5803F17D08E
:100D3000B0F5A02F286817D020F4803028602868EC
:100D400020F4802028606068E0B1FFF723FC804633
:100D500014E02868800322D56068002878D01EE05F
:100D6000286840F48030EDE740F480202860F7E701
:100D7000FFF710FCA0EB08006428A4D828688003C3
:100D8000F6D50CE0FFF706FC804605E0FFF702FC15
:100D9000A0EB0800642896D828688003F6D4207851
:100DA00080073BD5042E11D00C2E01D1022F0DD07F
:100DB000E06801E0B6E1FFE0002828681ED040F4BA
:100DC00080702860FFF7E6FB07460CE028684005C6
:100DD0000CD5E0680028C1D008E000BFFFF7DAFBBF
:100DE000C01B022893D828684005F7D56868217C85
:100DF00020F0F85040EA016068600FE020F4807055
:100E00002860FFF7C7FB074605E000BFFFF7C2FBFE
:100E1000C01B0228B1D828684005F7D42078000705
:100E200029D560690028D5F8940012D040F001005F
:100E3000C5F89400FFF7AEFB074604E0FFF7AAFBF6
:100E4000C01B022899D8D5F894008007F6D512E087
:100E50002BE120F00100C5F89400FFF79BFB07464B
:100E600005E000BFFFF796FBC01B022885D8D5F828
:100E700094008007F6D42078400766D5A86D002737
:100E8000C00008D4A86D40F08050A865A86D012767
:100E900000F08050009053480168C90512D40168E1
:100EA000814641F480710160FFF774FB804605E0E4
:100EB000FFF770FBA0EB080002287DD8D9F80000EE
:100EC000C005F5D5A068012816D00528D5F89000F2
:100ED00017D020F00100C5F89000D5F8900020F060
:100EE000040000BFC5F89000A06841F28839C0B185
:100EF000FFF750FB80460FE0D5F8900040F001006E
:100F0000F0E740F00400C5F89000F5E7FFF742FB7A
:100F1000A0EB080149454FD8D5F890008007F5D5DA
:100F20000EE0FFF737FB804606E000BFFFF732FB1D
:100F3000A0EB080149453FD8D5F890008007F5D4CB
:100F40001FB1A86D20F08050A8652078800628D5B4
:100F5000606A0028D5F8980012D040F00100C5F86A
:100F60009800FFF717FB074605E000BFFFF712FBED
:100F7000C01B022820D8D5F898008007F6D510E0CD
:100F800020F00100C5F89800FFF704FB074604E0D5
:100F9000FFF700FBC01B02280ED8D5F89800800789
:100FA000F6D4A06AA8B1022824D00C2E7DD02868DF
:100FB00020F08070286000E0B3E02868000103D4CE
:100FC000E86820F00300E860E86807490840E86046
:100FD0000CE09FE000100240CC2000081000002030
:100FE0000400002000700040FFFFEEFEFFF7D2FA81
:100FF000044699E0E868E26A00F00301914226D1D4
:10100000216B00F070020901103991421FD1626B0F
:1010100000F4FE41B1EB022F19D194F8382000F012
:101020007841B1EBC26F12D1A18F00F4C002490820
:101030004905A1F50011914209D194F8401000F042
:10104000C06049084906A1F1007181424BD00C2EC5
:101050006FD0286840016CD4286820F08070286028
:10106000FFF798FA064604E0FFF794FA801B02287F
:1010700057D828688001F7D4F4E90B016FF00F020C
:1010800002EB01110843218A5204490802EB415145
:10109000A26841EA02210843217D4FF07E424908BF
:1010A00002EB41610843217B00E042E040EAC1607D
:1010B000E968214A11400843E860286840F08070E0
:1010C0002860E86840F08070E860FFF763FA044643
:1010D00005E000BFFFF75EFA001B022821D8286850
:1010E0008001F7D523E02868800120D4286840F0EB
:1010F00080702860E86840F08070E860FFF74AFA86
:10110000044604E0FFF746FA001B022809D82868C5
:101110008001F7D50BE000BFFFF73CFA001B022867
:1011200002D90320BDE8F88328688001F4D40020A8
:10113000F8E70120F6E700008C809D0170477047BA
:10114000704710B5040003D094F83D0010B107E0DB
:10115000012010BD002084F83C00204600F00CF86F
:10116000022084F83D00211D206800F01BFC0120B6
:1011700084F83D00002010BD704700000168CA6877
:1011800042F00102CA6001688868064A10400628D9
:1011900006D0B0F5803F03D0086840F00100086039
:1011A0000020704707000100704770B504460068D2
:1011B00001694FF00005C943890715D4C168C943C7
:1011C000890711D4E91E0161012020772068806918
:1011D0008007204602D0FFF7E7FF04E000F0A7F801
:1011E000204600F0A5F8257720680169C943490722
:1011F00017D4C168C943490713D46FF004010161D2
:10120000022020772068806910F4407F204602D0B9
:10121000FFF7CAFF04E000F08AF8204600F088F8E3
:10122000257720680169C943090716D4C168C943F5
:10123000090712D46FF008010161042020772068AB
:10124000C0698007204602D0FFF7AEFF04E000F03F
:101250006EF8204600F06CF8257720680169C943D4
:10126000C90617D4C168C943C90613D46FF0100169
:101270000161082020772068C06910F4407F204673
:1012800002D0FFF791FF04E000F051F8204600F093
:101290004FF8257720680169C943C90708D1C1689B
:1012A000C943C90704D1891E0161204600F041F8F5
:1012B00020680169C943090609D4C168C943090600
:1012C00005D46FF0800101612046FFF738FF2068E8
:1012D0000169C943C90509D4C168C943090605D4D0
:1012E0006FF4807101612046FFF728FF20680169D3
:1012F000C943490609D4C168C943490605D46FF0FA
:1013000040010161204600F015F820680169C943D9
:1013100089060BD4C168C943890607D46FF0200140
:1013200001612046BDE87040FFF70ABF70BD7047FD
:101330007047704770477047704700002DE9F041D3
:1013400002680446D0691168936840F60F05284288
:101350004FF0000505D186067BD58E0679D5216E26
:1013600088E003F0010601F49077374371D0C70796
:1013700007D0CF0505D501271762E26F42F00102C1
:10138000E267820708D5DA0706D0276802223A62A8
:10139000E26F42F00402E267420708D5DA0706D09E
:1013A000236804221A62E26F42F00202E267020737
:1013B0000AD501F02002324306D0236808221A62BF
:1013C000E26F42F00802E267020509D54A0107D53B
:1013D00023684FF400621A62E26F42F02002E26773
:1013E000E26F002A2ED0800605D5880603D5216E2F
:1013F00009B120468847E06F21688968490602D410
:1014000010F0280F20D0204600F09CFB2068816857
:10141000490614D5816821F040018160E06E70B109
:101420001D498163E06EFEF7B7FF00280AD0E06E29
:10143000816B00E02046BDE8F041084709E0204606
:10144000FFF77AFFBDE8F0812046FFF775FFE567FB
:10145000F8E7C60209D55B0207D54FF48010106289
:101460002046BDE8F041FFF766BF030605D50B0631
:1014700003D5616E0029DDD1E4E74006E2D54806D8
:10148000E0D51168204621F04001116020216167FC
:10149000656600F046F9D5E7311B000810B5040079
:1014A00002D0606F10B107E0012010BD002084F869
:1014B0007000204600F026F824206067206801684C
:1014C00021F001010160204600F04CFB0128ECD026
:1014D000606A10B1204600F09BFA2068416821F450
:1014E000904141602068816821F02A018160206874
:1014F000016841F0010101602046BDE8104000F0A4
:10150000EBBA000010B586B0044614216846FEF719
:1015100004FF17492068884228D11648016E41F41B
:1015200080410166016E01F480410591C16C41F07A
:101530000101C164C06C694600F0010005904FF4E0
:10154000C0600090022001900020029003200390D0
:10155000072004904FF09040FEF746FF002205213F
:101560002520FFF78FF82520FFF77EF806B010BD85
:1015700000380140001002402DE9F84F0446806F0A
:101580009A4616460D4620286BD1EDB1E6B194F887
:101590007000012865D0012084F870004FF0000829
:1015A000C4F87C802220A067FEF7F4FFA4F85860FE
:1015B0008146A4F85A60A0684FF48053FF219842F6
:1015C00008D122691AB11CE0012000F04CB840F2A9
:1015D000FF1116E07F2290B1B0F1805F14D0A4F823
:1015E0005C8000BFB4F85C70984201D1206990B172
:1015F0002E46002584F8708007F0FF0825E0266954
:1016000036B9A4F85C10EDE7216909B13F21F8E78C
:10161000A4F85C20E6E70026ECE74B4600222021F8
:101620002046CDF800A000F0B1FB08B10320CCE7C4
:101630002068808C8EB100EA080006F8010B00BF1C
:10164000B4F85A00401EA4F85A00B4F85A00002812
:10165000E3D12020A0670020B7E7384025F8020B2F
:10166000EEE70220B1E718BCBDE8E08F2DE9F843B2
:101670000446406F1F4616460D4620284FD1CDB177
:10168000C6B194F87000012849D0012084F8700098
:101690004FF00008C4F87C8021206067FEF77AFFD5
:1016A000A4F850608146A4F85260A068B0F5805F4D
:1016B00003D004E00120BDE8F883206928B12E465C
:1016C0005FF0000584F8708010E00026FAE78021C2
:1016D000204600F05BFBB8B9C6B116F8010B2168D3
:1016E0000885B4F85200401EA4F85200B4F8520025
:1016F0004B464FF0000200970028E8D14FF0400120
:10170000204600F043FB30B10320D4E735F8020B4C
:10171000C0F30800E3E7202060670020CBE7022049
:10172000C9E77047FEE7FEE7704700002DE9F0418A
:10173000444C05468846E0680026810728680DD09D
:10174000E16801F00301814216D1A8B1E06869683F
:10175000C0F30210401C88420ED120E0012804D0C2
:10176000022805D0032807D108E02168890701E095
:1017700021684905002907DB01265FE0216889030C
:1017800002D421684903F5E7E1686A686FF00F0346
:1017900021F0730103EB021211430143E160206861
:1017A00020F080602060FEF7F5FE074605E000BFF0
:1017B000FEF7F0FEC01B022837D820680001F7D4DE
:1017C000B8F1000F18D0B8F1010F1DD0287D4FF0EF
:1017D0007E41400801EB4060A96840EA0120216990
:1017E000194A114008432061206840F08060206061
:1017F000FEF7D0FE07461AE0A868297B000240EAFF
:10180000C1602169114AECE7288A1149400801EBBF
:101810004050A96840EA012021690E4AE1E700BF73
:10182000FEF7B8FEC01B022801D9032606E0206897
:101830000001F5D52069A969084320613046BDE85B
:10184000F081000000100240FF80FFF9FF80FF07D9
:101850000000E0FFFF809FFFF8B51C4D0646002406
:10186000A86DC00002D5FEF73FFF0DE0A86D40F067
:101870008050A865A86D00F080500090FEF734FFFE
:10188000A96D21F08051A965B0F5007F04D0802EAC
:1018900007D94FF003040AE0802E08D9A02E01D802
:1018A00004E001D1022402E0702E00D10124084896
:1018B000016821F0070121430160006800F0070082
:1018C000A04201D00120F8BD0020F8BD0010024068
:1018D0000020024010B5502080F31188BFF34F8FD5
:1018E000BFF36F8F00F08EFB18B104494FF08050AA
:1018F0000860002080F3118810BD000004ED00E0B6
:1019000010B5ACB044216846FEF707FD142126A8A7
:10191000FEF703FD542111A8FEF7FFFC0220009002
:10192000C00103901020002404900A946846FFF739
:101930004FF90F2026900120CDE92704299400219A
:1019400026A82A94FFF71EF811A8FEF7D5FE2CB0A2
:1019500010BD00000D48016841F4700101600C48A1
:10196000016841F001010160002181600268094BBA
:101970001A4002608214C260026822F4802202606F
:1019800081610249C00380390860704788ED00E03A
:1019900000100240FFFFF6EA0148FFF706BC000016
:1019A000D000002070B50268164B4FF08046984278
:1019B00001D0B04203D122F070044A682243124C95
:1019C000124D984205D0B04203D0A04201D0A842A7
:1019D00003D122F44076CA6832434E6922F0800275
:1019E000324302608A68C2620A688262984203D007
:1019F000A04201D0A84201D10969016301214161DE
:101A000070BD0000002C0140004001400044014036
:101A100090F82410C90706D001684A68836A22F446
:101A200000321A434A6090F82410890706D50168ED
:101A30004A68C36A22F480321A434A6090F824103C
:101A4000490706D501684A68036B22F480221A43CD
:101A50004A6090F82410090706D501684A68436B6C
:101A600022F400421A434A6090F82410C90606D5B1
:101A700001688A68836B22F480521A438A6090F866
:101A80002410890606D501688A68C36B22F40052C7
:101A90001A438A6090F82410490611D501684A68F3
:101AA000036C22F480121A434A60016CB1F5801F66
:101AB00006D101684A68436C22F4C0021A434A60A6
:101AC00090F82410090606D501684A68806C22F453
:101AD000002202434A607047F8B500260446C667F4
:101AE000FEF758FD0546206800686FF07E47000746
:101AF00008D52B4600224FF400112046009700F035
:101B000045F960B92068006840070AD52B460022D5
:101B10004FF480012046009700F038F908B1032007
:101B2000F8BD20206067A06784F870600020F8BDD1
:101B300010B5806A0021A0F85A10A0F85210FFF7E3
:101B4000FBFB10BD01680A6822F490720A6001680C
:101B50008A6822F001028A602021816700210166E3
:101B6000704700002DE9F041044600682369A2682F
:101B7000E5691A43636900272B431A437A490368CE
:101B80007A4D2B401343036020684268E36822F4D7
:101B900040521A4342602268A0698A4201D0236AF7
:101BA0001843936823F4306303439360704B2268B7
:101BB00070489A420DD1D0F8880010F0030006D08A
:101BC000012838D0022834D0032821D135E001255E
:101BD0001FE0694B9A420BD1D0F8880010F00C003E
:101BE00025D0042827D0082823D00C2810D124E0A1
:101BF0008A420DD1D0F8880010F4406017D0B0F5BB
:101C0000806F18D0B0F5006F13D0B0F5406F14D0CE
:101C100010255A4B00264FF400408A4245D175B139
:101C2000022D0FD0042D0FD0082D18D10FE0002564
:101C3000EFE70225EDE70425EBE70825E9E7FEF7E6
:101C400051FF03E0184602E0FEF770FFA8B3626898
:101C500002EB4201814202D8B0EB023F01D90127D9
:101C60006FE0DFF81C815DB1022D0CD0042D13D084
:101C7000082DF4D150082905401846F1000105E06F
:101C8000FEF730FF0AE050083E49F5E70023FEF773
:101C900009FBA0F5407150E0FEF748FF6268010EB5
:101CA0000302500818187141F0E7E1694FF6EF7828
:101CB00081422FD1092DD2D200E042E0DFE805F0C9
:101CC00006092005230505052600C8E7FEF70AFFDB
:101CD00001E0FEF719FF4100D4F8040001EB5001C8
:101CE000B1FBF0F080B2A0F110014145B7D84FF63A
:101CF000F0710140C0F3420001432068C16020E060
:101D000021496068EAE7FEF711FFE4E74FF480310C
:101D10006068E3E7092DA2D2DFE805F0060918059F
:101D20001E05050520009AE7FEF7DCFE16E0FEF72B
:101D3000EBFE13E080B2A0F1100141458FD821687D
:101D4000C860266638466666BDE8F081606803EBC9
:101D50005001B1FBF0F0EDE7FEF7E8FE616800EB43
:101D60005100B0FBF1F0E5E700800040F369FFEFC0
:101D70000038014000100240004400400024F400FC
:101D8000FFFC0F00000024F40048E8012DE9F047B3
:101D90009A4617460E4604464FF000094FF02008B9
:101DA000089D39E0681C37D0FEF7F4FBA0EB0A0071
:101DB000A84222D80DB32068016849072CD5C06914
:101DC000C043000528D421684FF4006008622068F1
:101DD000016821F4D07101602068816821F001015F
:101DE0008160C4F87480C4F87880C4F87C8000BF37
:101DF00084F870900320BDE8F0872068016821F422
:101E0000D07101602068816821F001018160C4F80F
:101E10007480C4F87880EBE72068C06936EA000077
:101E200004D00020B842BDD00020E4E70120F9E74B
:101E300010B50B48FFF782FA4FF4FA7423460122DB
:101E400008490748FFF798FB002807D12346BDE85B
:101E50001040012203490248FFF708BC10BD0000F2
:101E60005000002000000020FEE70907090E0028AE
:101E700004DB00F1E02080F80014704700F00F0050
:101E800000F1E02080F8141D704702E008C8121F1E
:101E900008C1002AFAD170477047002001E001C153
:101EA000121F002AFBD1704786B0FEF779FBFFF7BF
:101EB00027FD14216846FEF730FA1C48C16C41F03A
:101EC0000201C164C06C1A4E00F002004FF480554C
:101ED0000590002229463046FEF757FB00240320D8
:101EE000CDE90004694630460294FEF77DFA0120F0
:101EF0000095CDE90104694630460394FEF774FA73
:101F00000D4D0C4828600D48C5E901040C20EC601B
:101F1000C5E90440AC612846EC61FFF7BFFA2868C8
:101F2000016841F020010160FEE70000001002405E
:101F300000040048003801405000002090D0030009
:101F400006484168096829B14168C968C968496893
:101F5000016370474FF0FF31FAE7000014000020E2
:101F6000D0E9013201699A60D0E901235A604A68D8
:101F7000824201D182684A60002202610868401EE4
:101F800008600868704742684A6093688B6093688D
:101F90005960916008610168491C01607047000048
:101FA000164810B5816B11B10121416210BD0021AD
:101FB00041628169124A01E0B9B1491E01EB810316
:101FC00052F82330002BF7D001EB810302EB8302A0
:101FD00002F1080453685B685360A34201D15B6857
:101FE0005360DA680260816110BD502080F311886F
:101FF000BFF34F8FBFF36F8FFEE700001400002088
:10200000100100202DE9F0412E4C0027A06B40B1BB
:10201000206A401C2062606A00B101273846BDE892
:10202000F0816669761C666113D16068006838B11A
:10203000502080F31188BFF34F8FBFF36F8FFEE7FF
:102040006068A1686160A060A06A401CA062FFF7A0
:1020500077FF206BDFF87080864209D360680068E4
:1020600080B16068C068C568686886420DD2206328
:102070002068C06A00EB800158F821000128CAD905
:102080000127C8E74FF0FF30F1E7281DFFF768FF91
:10209000A86A18B105F11800FFF762FFE86AA169A4
:1020A000884200D9A06100EB800108EB8100291D66
:1020B000FFF769FFE86A2168C96A8842CED3012721
:1020C000CCE70000140000201001002000000000F8
:1020D000000000000102030406070809A0860100B1
:1020E000400D0300801A060000350C0040420F002E
:1020F00080841E0000093D0000127A000024F400D4
:1021000000366E010048E801006CDC0200000000AF
:1021100001020304342100080000002050000000E8
:102120008A1E000884210008500000208809000051
:102130009A1E0008000000001000000001000000CE
:102140000000000000093D00000000000000000049
:10215000000000000000000000000000000000007F
:10216000000000000000000000000000000000006F
:10217000000000000000000000000000000000005F
:04218000000000005B
:040000050800018D61
:00000001FF
